:020000040800F2
:1000000000000420E50B0708132D06081B2D060829
:10001000232D06082B2D0608332D0608739E06088F
:100020000000000000000000000000003B2D06085A
:10003000492D060800000000572D0608652D06080A
:10004000739E0608739E0608712D0608739E0608A7
:10005000739E0608739E0608739E0608739E060824
:10006000739E0608852D0608739E0608739E060873
:10007000739E0608739E0608739E0608A32E060844
:10008000B12E0608952E0608739E0608739E060874
:10009000739E0608739E0608739E0608739E0608E4
:1000A000BF2E0608739E0608739E0608739E0608F8
:1000B000739E0608C12D0608D52D0608739E0608F6
:1000C000739E0608739E0608739E0608739E0608B4
:1000D000739E0608739E0608739E0608739E0608A4
:1000E000739E0608739E0608739E0608739E060894
:1000F000739E0608739E0608E92D0608739E06087F
:10010000739E0608739E0608739E0608FD2D06085A
:10011000739E0608739E0608739E0608739E060863
:10012000739E0608739E0608739E0608739E060853
:10013000739E0608512E0608739E0608739E0608D5
:10014000739E0608739E0608212E0608452E060893
:10015000739E0608739E0608739E0608739E060823
:10016000739E0608739E0608739E0608739E060813
:10017000739E0608739E0608739E0608739E060803
:08018000739E0608739E060839
:1001880010B5054C237833B9044B13B10448AFF3C9
:1001980000800123237010BDE00A00200000000049
:1001A80084760A0808B5034B1BB103490348AFF32B
:1001B800008008BD00000000E40A002084760A08D8
:1001C80081B00120ADF8000068460078012801D10F
:1001D800012000E00020C0B201B07047010008789B
:1001E800497850EA012080B2704710B50400200019
:1001F800FFF7F4FF80B2A17850EA014010BD38B58E
:1002080004002000FFF7EAFF0500ADB2A01CFFF7CD
:10021800E5FF55EA0045280032BD10B5040020006E
:10022800FFF7EDFF217910BD10B504002000FFF79E
:10023800F4FF62790023130200221043194310BD12
:1002480010B504002000FFF7EFFFA2790023130484
:1002580000221043194310BD38B505002800FFF7E8
:10026800CEFF0400281DFFF7CAFF0300220010007C
:10027800190034BD01700A0092B2120A4270704728
:1002880038B504000D00290089B22000FFF7F2FFFD
:100298002800000CA07031BD38B504000D002900FD
:1002A8002000FFF7EDFF2800000EE07031BD70B5AB
:1002B800060014001D0021003000FFF7EDFF357126
:1002C80070BD70B5060014001D0022002B00300020
:1002D800FFF7EDFF20002900080A0021707170BDAA
:1002E80070B5060014001D0022002B003000FFF737
:1002F800E8FF20002900080C0021B07170BD70B51E
:10030800060014001D0022002B003000FFF7E8FF54
:1003180020002900080E0021F07170BDF8B5040016
:1003280025680821280028F0C0FB002807D0DFF83E
:100338007833DFF878230821280028F0D2FBDFF88B
:100348006C730D22390028002CF07CFD0026102E3D
:1003580006D2206F00EB8600FF218170761CF6E73D
:100368001122390028002CF06EFD3A0000212800E7
:100378002CF004FAF1BD2DE9FE4304000D0016002F
:10038800DFF82C931C22494620002CF05BFD5FF01F
:100398000008CDF80080042301AAC521200000F040
:1003A800BFFF07003800C0B2002806D031224946F6
:1003B80020002CF048FD00201DE09DF80600FF28D5
:1003C80016D0BDF80400290089B2884210D1300047
:1003D800C0B2FF2805D09DF806003100C9B2884296
:1003E80006D12E22494620002CF02DFD012002E0E6
:1003F80018F10108CDE7BDE8FE832DE9F84F0600A6
:100408000F00904641F6E41056F8009000240622AA
:10041800002140462CF058FD002088F8000038885C
:10042800A8F80200B87888F8040000230022B978F8
:10043800300038F011F9002803D1A62088F8000010
:1004480046E0DFF870A24A22514630002CF0FAFC50
:100458005FF0000B5846C0B210281ED2D9F87000C1
:100468005946C9B200EB81000500A878FF2803D1DE
:10047800002C00D12C000DE028883988884209D149
:10048800A878B978884205D15F22514630002CF00F
:10049800DAFC1DE01BF1010BDCE7002C03D1AE20D8
:1004A80088F8000006E038882080B878A07000201E
:1004B80088F800006D22514630002CF0C4FC98F8F2
:1004C8000000002804D15246002130002CF056F9D3
:1004D800BDE8F18F2DE9F04705000E00170041F641
:1004E800E41055F80080A620387030887880B078FD
:1004F8003871DFF8C4918022494628002CF0A2FC0C
:100508005FF0000A5046C0B2102818D2D8F8700020
:100518005146C9B200EB81000400A078FF280BD037
:1005280020883188884207D1A078B178884203D1E1
:10053800FF20A070002038701AF1010AE2E7932228
:10054800494628002CF07FFC3878002804D14A4618
:10055800002128002CF012F9BDE8F0872DE9F047BA
:1005680005000E00170041F6E41055F80080002041
:10057800387030787870DFF84491A5224946280011
:100588002CF060FC5FF0000A5046C0B2102812D26E
:10059800D8F870005146C9B200EB81000400A07879
:1005A800FF2805D0A0783178884201D1FF20A070BB
:1005B8001AF1010AE8E7B422494628002CF043FC66
:1005C8004A46002128002CF0D9F8BDE8F0872DE92B
:1005D800FC4104000026DFF8E880BF2241462000E5
:1005E8002CF030FC00250095042301AAC521200029
:1005F80000F096FE07003800C0B2002808D0CA22D2
:10060800414620002CF01FFCAD1B2800C0B206E0BC
:100618009DF80600FF2800D0761C6D1CE3E7BDE8B6
:10062800F6812DE9FE4F04000D0016001F005FF053
:100638000008DFF89090D622494620002CF002FCF2
:100648005FF0000ACDF800A0042301AAC52120000C
:1006580000F066FE83465846C0B200281AD19DF8BD
:100668000600FF2813D09DF806002900C9B2884269
:100678000DD140463900C0B2C9B288420AD2BDF88D
:1006880004004146C9B226F8110018F101081AF110
:10069800010AD7E7EB22494620002CF0D4FB40465C
:1006A800C0B2BDE8FE8F000038C40A0820C40A089A
:1006B80058C40A086CC40A0880C40A0898C40A08FE
:1006C800B4C40A08CCC40A0838B50400200032F0C3
:1006D8006DFD41F6E4150021605935F075FB605950
:1006E80000F00DF8605935F02DFA200003F056FAA5
:1006F800DFF8142C012120002CF040F831BD2DE941
:10070800F04104002568DFF8046C28223100280035
:100718002CF098FB200036F0A8F92000FFF7FEFD2A
:10072800002020720020207300200021C4E91A0153
:10073800012084F87400FF2084F8760084F877009C
:100748000020A067002084F8C9000027D4F88000A2
:10075800874223D25FF0580800200021E26F08FB8F
:1007680007F31A44C2E9000110220021E06F08FBD8
:1007780007F3184436302CF0A7FBE06F08FB07F1AD
:1007880008444FF6FF71A0F84610E06F08FB07F821
:100798004044012180F848107F1CD7E70020002141
:1007A800C4E922011022002114F197002CF08CFBDF
:1007B8001022002114F1A7002CF086FB002084F8F9
:1007C800B800002084F8C8000020C4F8BC004C22FF
:1007D800310028002CF037FBBDE8F0811CB504007F
:1007E8000020C4F89000D4F8900050F00100C4F83C
:1007F8009000D4F8900050F04000C4F89000D4F86D
:10080800900050F48060C4F8900000208DF8040037
:1008180000200090012301AA41F20F01206803F093
:10082800E9F89DF80400002805D0D4F8900050F0AD
:100838001000C4F89000D4F8900050F40050C4F8A8
:10084800900013BD2DE9F84787B004000D0016008D
:1008580041F6E41027580020307028887080DFF8AF
:10086800B08A7E22414620002CF0ECFAB5F900004F
:10087800AA3800F06182401E00F08181401E00F01D
:100888008B81401E00F09581801E00F0D381C01E30
:1008980000F0DD81401E00F0E781401E00F0FE817F
:1008A8000D3846D0401E5AD0401E65D0401E70D02C
:1008B800401E7BD0C01E00F08E80401E00F0988045
:1008C800401E00F0A280401E00F0AC80401E00F0E8
:1008D8003981401E00F0B380801E00F0BD80401EAC
:1008E80000F0C7804FF48661401A00F01181401E65
:1008F80000F01B81401E00F06981401E00F07381EA
:10090800401E00F07D81401E00F0D581401E00F0A1
:10091800DF81401E00F0E981401E00F07E81401E0C
:1009280000F0AF81401E00F0ED81401E00F0F7811D
:100938001AE2E86840280FD2A868282809D1282296
:100948007968EB6830204343194468682CF0CCFA86
:1009580001E0A620307001E0BD20307006E2A868F2
:10096800012806D1012217F1080168682CF0BCFAA9
:1009780001E0A6203070F9E1A8685C2806D15C2265
:1009880017F10C0168682CF0AFFA01E0A62030706E
:10099800ECE1A868082806D1082217F16801686800
:1009A8002CF0A2FA01E0A6203070DFE1E8681028F8
:1009B8000ED2A868042808D10422386FE96800EB31
:1009C800810168682CF090FA01E0A620307001E0FF
:1009D800BD203070CAE1A868012806D1012217F1AC
:1009E800740168682CF080FA01E0A6203070BDE13F
:1009F800A868012806D1012217F1750168682CF052
:100A080073FA01E0A6203070B0E1A868012806D189
:100A1800012217F1760168682CF066FA01E0A62039
:100A28003070A3E1A868012806D1012217F17701E7
:100A380068682CF059FA01E0A620307096E1A868A1
:100A4800012806D1012217F1960168682CF04CFAAA
:100A580001E0A620307089E1A868012806D10122AA
:100A680017F1C90168682CF03FFA01E0A620307040
:100A78007CE142F2203004EB000942F2483004EBFA
:100A8800000A200028F0BAFC1C22002168462CF03D
:100A98001BFAB9F80600ADF80000B9F80800ADF87F
:100AA8000200B9F80A00ADF80400B9F81800ADF86A
:100AB8000600B9F81A00ADF80800B9F81C00ADF83E
:100AC8000A00B9F81E00ADF80C00B9F82000ADF81E
:100AD8000E00B9F82400ADF81200BAF81400ADF809
:100AE8001000DAF80C000590BAF81000ADF81800FC
:100AF800BAF81200ADF81A00A8681C2805D11C2203
:100B0800694668682CF0F0F901E0A62030702DE104
:100B1800A868012806D1012217F1B70168682CF0EE
:100B2800E3F901E0A620307020E1A868012806D189
:100B3800012217F1B80168682CF0D6F901E0A62067
:100B4800307013E1A868002802D1A62030700DE1AA
:100B580027F090FFB96F2CF0F8FB002803D1002193
:100B68006A6811700AE0DFF8AC17B0FBF1F1B1F573
:100B7800807F01D3FF2211006A681170F6E0A8682F
:100B8800082806D1082217F1880168682CF0ACF90A
:100B980001E0A6203070E9E0A868022806D1022208
:100BA80017F1940168682CF09FF901E0A6203070D5
:100BB800DCE0A868042806D1042217F190016868CF
:100BC8002CF092F901E0A6203070CFE0A868102838
:100BD80006D1102217F1970168682CF085F901E019
:100BE800A6203070C2E0A868102806D1102217F19C
:100BF800A70168682CF078F901E0A6203070B5E00C
:100C0800A868042806D1042217F1BC0168682CF0F2
:100C18006BF901E0A6203070A8E0A868012806D189
:100C2800012217F1C00168682CF05EF901E0A620E6
:100C380030709BE0A868012806D1012217F1CA018B
:100C480068682CF051F901E0A62030708EE0A868A1
:100C5800082806D1082217F1D00168682CF044F959
:100C680001E0A620307081E0A868082806D1082293
:100C780017F1D80168682CF037F901E0A620307028
:100C880074E0A868012806D1012217F1E00168681C
:100C98002CF02AF901E0A620307067E0A868012846
:100CA80006D1012217F1E10168682CF01DF901E075
:100CB800A62030705AE0A868022806D1022217F14F
:100CC800C20168682CF010F901E0A62030704DE0F0
:100CD800A868022806D1022217F5947168682CF0DA
:100CE80003F901E0A620307040E0A868022806D188
:100CF800022217F1C40168682CF0F6F801E0A6207A
:100D0800307033E0A868022806D1022217F1C60124
:100D180068682CF0E9F801E0A620307026E0A868A1
:100D2800012806D1012217F1C80168682CF0DCF807
:100D380001E0A620307019E0E868D7F880108842F2
:100D48000FD2A868582809D15822F96FEB685820A3
:100D58004343194468682CF0C7F801E0A6203070B6
:100D680001E0BD20307001E0B020307040F24F1239
:100D7800414620002CF067F808B0BDE8F0872DE95F
:100D8800FC4107000C00150041F6E41857F808600C
:100D98002088688000202870B4F90000AA3800F084
:100DA8002782401E00F06D81401E00F09F81401E8A
:100DB80000F0A981801E00F0E781C01E00F0F181DB
:100DC800401E00F0FB81401E00F006810D384AD01D
:100DD800401E00F08080401E00F08A80401E00F017
:100DE8009480401E00F09E80C01E00F09E80401E31
:100DF80000F0A880401E00F0B280401E00F0BC80C9
:100E0800401E00F02B81401E00F0C380801E00F0C1
:100E1800D680401E00F005814FF48661401A00F02C
:100E28000381401E00F00D81401E00F07981401EB4
:100E380000F08381401E00F08D81401E00F0F38198
:100E4800401E00F0FD81401E00F00782401E00F0A9
:100E58008E81401E00F0BF81401E00F03682401E89
:100E680000F040824BE2D4F80480A068282802D021
:100E7800A620287045E298F80800002803D098F8C2
:100E88000800FF2802D1A62028703AE2B8F812001C
:100E9800002804D0B8F81200B0F5807F02D3A6204D
:100EA80028702EE2E068402812D2A06828280CD1C9
:100EB800282261687368D4F80CC0302000FB0CFC51
:100EC80003EB0C002CF010F801E0A620287001E0DC
:100ED800BD20287015E2A068012806D101226168AA
:100EE80016F108002CF000F801E0A620287008E2AE
:100EF800A0685C2806D15C22616816F10C002BF012
:100F0800F3FF01E0A6202870FBE1A068082806D1BD
:100F18000822616816F168002BF0E6FF01E0A620C0
:100F28002870EEE1A3202870EBE1A068012806D123
:100F38000122616816F174002BF0D6FF01E0A620AB
:100F48002870DEE1A068012806D10122616816F147
:100F580075002BF0C9FF01E0A6202870D1E1A06838
:100F6800012806D10122616816F176002BF0BCFF3A
:100F780001E0A6202870C4E1A068012806D101225A
:100F8800616816F177002BF0AFFF01E0A62028700A
:100F9800B7E1A068012802D0A62028700EE060689A
:100FA8000078092803D260680078002802D1A620BA
:100FB800287003E06068007886F89600A1E1A068D0
:100FC800012806D10122616816F1C9002BF08CFFB7
:100FD80001E0A620287094E100208DF80000A068A8
:100FE800012805D10122616868462BF07DFF01E0E8
:100FF800A62028702878002840F083819DF80000FA
:10100800062802D206208DF800009DF800003D2831
:1010180002D33C208DF800009DF8000086F8E1001E
:101028006FE1A32028706CE1A068012806D1012295
:10103800616816F1B7002BF057FF01E0A620287071
:101048005FE1A068012806D10122616816F1B800A5
:101058002BF04AFF01E0A620287052E1A068012881
:101068000CD160680078B067B16FAA484143B16796
:1010780027F000FDB16F4018B06701E0A620287086
:101088003FE1A068082806D10822616816F18800A7
:101098002BF02AFF01E0A62028702878002818D114
:1010A800D6E92201002901D100281ED0D6E9220163
:1010B8005FF0FF325FF0FF33994201D1904214D0C4
:1010C80001200090D6E922230021380002F072FFA7
:1010D8000BE00821380027F0E8FC002805D08E4BEB
:1010E8008E4A0821380027F0FCFC0AE1A068022893
:1010F80006D10222616816F194002BF0F5FE01E09A
:10110800A6202870FDE0A068042806D104226168A2
:1011180016F190002BF0E8FE01E0A6202870F0E020
:10112800A068102806D11022616816F197002BF0EC
:10113800DBFE01E0A6202870E3E0A068102806D1B5
:101148001022616816F1A7002BF0CEFE01E0A62060
:101158002870D6E0A068042806D10422616816F138
:10116800BC002BF0C1FE01E0A6202870C9E0A068F1
:10117800012806D10122616816F1C0002BF0B4FEE7
:1011880001E0A6202870BCE0A068012806D1012251
:10119800616816F1CA002BF0A7FE01E0A6202870AE
:1011A800AFE0A068082806D10822616816F1D000CF
:1011B8002BF09AFE01E0A6202870A2E0A06808287B
:1011C80006D10822616816F1D8002BF08DFE01E0E7
:1011D800A620287095E0A068012806D10122616840
:1011E80016F1E0002BF080FE01E0A620287088E0D0
:1011F800E068D6F88010884212D2A06858280CD12E
:1012080058226168F36FD4F80CC0582000FB0CFC1E
:1012180003EB0C002BF068FE01E0A620287001E02B
:10122800BD2028706DE0A068022806D102226168FE
:1012380016F1C2002BF058FE01E0A620287060E0ED
:10124800A068022806D10222616816F594702BF076
:101258004BFE01E0A620287053E00020ADF8020004
:10126800A068022806D1022261680DF102002BF065
:101278003BFE01E0A62028702878002841D1BDF85F
:101288000200002806D0BDF802003C2802D2A620A1
:10129800287036E0BDF80200A6F8C400B6F8C4000D
:1012A800002806D157F8080010F50E702BF0A7FF9C
:1012B8000AE0B6F8C4104FF47A70414357F80800B2
:1012C80010F50E702BF0C0FF1BE0A068022806D1B5
:1012D8000222616816F1C6002BF006FE01E0A62086
:1012E80028700EE0A068012806D10122616816F175
:1012F800C8002BF0F9FD01E0A620287001E0B0201D
:101308002870BDE8F3810000E8C40A08F4C40A089C
:1013180004C50A0880EE360024C50A0814C50A0860
:101328002DE9F84185B004000D0016001F00DDF816
:101338003080ADF8045002960397CDF810806A46C5
:1013480001A92000FFF77EFA9DF8000006B0BDE86D
:10135800F0812DE9F84185B004000D0016001F004A
:10136800DDF83080ADF8045002960397CDF8108070
:101378006A4601A92000FFF702FD9DF8000006B0AB
:10138800BDE8F0812DE9F04385B0070088461400D8
:101398001D000C9E002D03D1002C01D1002029E056
:1013A8005FF00009AA20ADF80400CDF808805820A5
:1013B8000390CDF810906A4601A93800FFF742FA69
:1013C8009DF80000002806D05822002140462BF046
:1013D8007BFD00200EE0D8E90001A94204D1A0421B
:1013E80002D1002E05D002E019F10109DAE7C6F8AA
:1013F8000090404605B0BDE8F0830000F0B401005D
:10140800002B03D1002A01D1002018E0002441F666
:10141800E4100D58D5F88050AC420FD20858C06F70
:10142800582505FB04F52844D0E900679F4201D1FF
:10143800964201D0641CEAE7012000E00020F0BCDD
:1014480070472DE9F04705008A4616001F00DFF8AF
:10145800A89A2F22494628682BF0F4FCD5F85C029C
:1014680015F51771884202D0D5F85C4200E00024D7
:10147800002C2FD0A04698F824005146C9B28842C3
:101488001FD1D8E90A01B94201D1B04200D018E011
:1014980018F108002BF0B3FED8F80400D8F80010B3
:1014A8004860D8F80000D8F804100860C8F8008030
:1014B800C8F804804122494628682BF0C4FC4046FD
:1014C8000EE0206815F51771884201D02468CFE72F
:1014D8000024CDE74722494628682BF0B4FC0020B9
:1014E800BDE8F08770B504000D00DFF8C86C4F2226
:1014F800310020682BF0A6FC2D606D6014F5177084
:101508006860D4F85C0228606868056028684560EF
:101518005222310020682BF096FCB4F8941015F193
:1015280008002BF091FE70BD2DE9F84FA0B0070020
:10153800884641F6E41A57F80A9001A8DFF8781CA3
:1015480091E81C0080E81C005FF0010B98F800008F
:10155800032865D1D8E90223D7E91A018B4201D1C2
:10156800824205D0D8E90201002959D1002857D173
:101578007022002104A82BF0A7FC05208DF810008C
:10158800D7E91A01CDE9060198F818008DF820006E
:1015980098F81800012803D098F81800B2280BD141
:1015A80098F820008DF82800102218F121010DF17B
:1015B80029002BF099FC29E098F81800032816D187
:1015C800D8E90801CDE90A0198F828008DF830001B
:1015D80001208DF8410098F839008DF8420010225A
:1015E80018F129010DF131002BF07EFC0EE00221EB
:1015F800380027F05AFA002807D0DFF8243DDFF832
:10160800242D0221380027F06CFAE0E184208DF8BF
:101618004800702304AA8021380026F005FED6E190
:10162800484634F034FB0600002E00F0D08198F8CC
:101638000000022808D1022086F83800B8F8060011
:10164800F0870024002521E098F80000032809D13C
:10165800032086F83800D8E90201C6E91001D8E964
:10166800024513E00221380027F01FFA002807D0AE
:10167800DFF8B43CDFF8AC2C0221380027F031FA4F
:10168800310057F80A0034F02AFBA0E198F8180056
:10169800012800F08980032800F01E81042803D067
:1016A800B22800F081808DE196F85000411C86F840
:1016B80050100421C0B2304480F85110102218F1A3
:1016C800280196F85000304451302BF00DFC96F864
:1016D8005000103086F8500022002B0096F8500079
:1016E80030445130FEF70BFE96F85000083086F86B
:1016F8005000D9E9222396F8500030445130FEF7C3
:10170800FEFD96F85000083086F850005846C0B2E2
:10171800002818D018F138000290012301AA96F881
:101728005010D1F1520196F85000304451302BF04E
:1017380058FF00900098012805DB96F85010009893
:10174800411886F8501001203074307C50F0200089
:101758003074307C307499F8FC00411C89F8FC1016
:1017680070760120B0770320F0770520707701208C
:1017780086F8AA00002086F8A900D8E908010029FF
:1017880001D1002806D0D8E908233100484635F0B1
:10179800B7FD08E0307C50F040003074642231001E
:1017A800484634F0A6FA12E196F85000411C86F833
:1017B800501098F81810C0B2304480F85110102218
:1017C80018F1210196F85000304451302BF08CFB71
:1017D80096F85000103086F8500096F85000411CDA
:1017E80086F8501098F82010C0B2304480F8511094
:1017F80022002B0096F8500030445130FEF77FFD50
:1018080096F85000083086F85000D9E9222396F857
:10181800500030445130FEF772FD96F85000083001
:1018280086F8500001203074307C50F0200030746D
:10183800307C307499F8FC00411C89F8FC107076F3
:101848000120B0770220F07705207077012086F814
:10185800AA00002086F8A90098F81800B22801D13B
:101868000320F07798F8310000282ED1002D0CD1F4
:10187800002C0AD10120F077022086F838004FF6B4
:10188800FF70F087002086F8AA0096F83800022832
:1018980009D1F08F4FF6F87188420CDBF08F4FF6C4
:1018A800FE71884207D096F83800032807D1002D2A
:1018B80001D1002C03D0307C50F0400030746422F9
:1018C8003100484634F015FA05E0D8E90E23310016
:1018D800484635F015FD7AE096F85000411C86F828
:1018E80050100321C0B2304480F85110102218F172
:1018F800290196F85000304451302BF0F5FA96F84B
:101908005000103086F85000D8E9082396F85000A7
:1019180030445130FEF7F3FC96F85000083086F852
:10192800500096F85010481C86F8500098F8280087
:10193800002801D0012000E00020C9B2314481F81C
:1019480051005846C0B2002818D018F1390002904A
:10195800012301AA96F85010D1F1520196F85000CF
:10196800304451302BF03DFE00900098012805DBF3
:1019780096F850100098411886F8501001203074DD
:10198800307C50F020003074307C3074307C50F063
:101998004000307499F8FC00411C89F8FC107076FE
:1019A8000120B0770320F07705207077012086F8B2
:1019B800AA00002086F8A90064223100484634F0C5
:1019C80098F904E0310057F80A0034F088F921B09A
:1019D800BDE8F08F2DE9F843B2B005000E0041F6DE
:1019E800E41055F80090FF27D6E90001D5E91A233D
:1019F80099422CD190422AD17022002168462BF0BE
:101A080063FA06208DF80000D5E91A01CDE9020134
:101A1800D6E90201CDE90401708AADF81800307CDE
:101A28008DF81A00307D002805D0502216F11401D7
:101A380007A82BF059FA84208DF81B0070236A46FA
:101A48008021280026F0F0FB3800C0B2F0E041F613
:101A5800F01855F8080090F8780000281AD10020EE
:101A68000090D9E922231CA92800FFF78BFC002845
:101A780010D10221280027F018F8002807D0DFF835
:101A8800583CDFF8582C0221280027F02AF83800A3
:101A9800C0B2CDE0484634F0FAF80400002C10D16A
:101AA8000221280027F001F8002807D0DFF8303C91
:101AB800DFF8282C0221280027F013F83800C0B2DC
:101AC800B6E0D6E9022394F8500020445130FEF7DE
:101AD80016FC94F85000083084F85000718A94F885
:101AE800500020445130FEF7C5FB94F85000801C8C
:101AF80084F8500094F85000411C84F85010317C50
:101B0800C0B2204480F85110307D00280ED0327DBC
:101B180016F1150194F85000204451302BF0E4F9E7
:101B280094F85010307D411884F85010012020742A
:101B3800207C50F020002074207C2074207C50F001
:101B48004000207499F8FC00411C89F8FC1060766C
:101B58000120A07706206077032084F83800D6E9B2
:101B68000001C4E91001012084F8AA00002084F8CB
:101B7800A90055F8080090F87800FE2805DA55F80D
:101B8800080090F87800E07716E000200090D9E986
:101B980022231CA92800FFF7F5FB002802D1012009
:101BA800E07709E09DF8980010F0110F02D00120AD
:101BB800E07701E00020E07794F81F800020009093
:101BC800D6E90223718AD9F8000002F0F3F9082156
:101BD800280026F06AFF00281CD0E07F002802D1E8
:101BE800DFF8000B01E0DFF8000B0490D6E90201F2
:101BF8000390D6E902010291D6E900010190D6E9E5
:101C080000010091DFF8E43ADFF8D02A0821280023
:101C180026F067FF307C022802D14FF4FA7700E003
:101C280064273A002100484634F063F84046C0B2C1
:101C380033B0BDE8F083F8B59CB005000E00D6E9D6
:101C48000001D5E91A2399421BD1904219D170227B
:101C5800002168462BF038F907208DF80000D5E9F7
:101C68001A01CDE90201D6E90201CDE90401842077
:101C78008DF8180070236A468021280026F0D4FACF
:101C880040E041F6E417E85934F001F80400002C6C
:101C980038D0D6E9022394F8500020445130FEF79A
:101CA8002EFB94F85000083084F85000012020746E
:101CB800207C50F020002074207C2074207C50F080
:101CC80040002074E85990F8FC00411CEA5982F859
:101CD800FC1060760120A0770020E077072060776D
:101CE800032084F83800D6E90001C4E91001012076
:101CF80084F8AA00002084F8A90000222100E859ED
:101D080033F0F7FF1DB0F0BD2DE9F04186B08046F5
:101D180014001D000C9E41F6E41058F800700020D5
:101D28000021CDE9040100200021CDE902010823AA
:101D380004AA9A21404607F084FCDDE90401002941
:101D480003D1002801D10020D2E00521404611F03E
:101D580037F9002817D03000C0B2012803D030006E
:101D6800C0B2B2280FD10821404626F09EFE0028B6
:101D780007D0DFF8E43BDFF8E42B0821404626F0E3
:101D8800B0FE0020B4E0002D19D1002C17D130008E
:101D9800C0B2B02813D03000C0B2B1280FD008218B
:101DA800404626F082FE002807D0DFF8B43BDFF873
:101DB800AC2B0821404626F094FE002098E09DF8C0
:101DC8003400009022002B00052140462FF071FAC4
:101DD800002801D100208BE000200090082302AAEF
:101DE800AB214046FFF79CFADDE90201002901D149
:101DF800002811D0DDE902015FF0FF325FF0FF3308
:101E0800994201D1904207D0DDE90201A94201D1EE
:101E1800A04201D000206BE000200090012301AA1D
:101E280041F20B01404601F0E5FD9DF80400002851
:101E380001D001205CE03000C0B2042829D1002084
:101E48000090012301AA41F21001404601F0D2FDA1
:101E58009DF80400002801D0012049E0D7F8840249
:101E6800002801D1002043E097F88002042801D01F
:101E780000203DE026F0FEFDD7F8841201F5EA4186
:101E880030312BF062FA002801D1002030E0012027
:101E98002EE03000C0B2032829D100200090012391
:101EA80001AA41F21101404601F0A4FD9DF8040089
:101EB800002801D001201BE0D7F88402002801D1B6
:101EC800002015E097F88002022801D000200FE0DA
:101ED80026F0D0FDD7F8841201F5EA4130312BF015
:101EE80034FA002801D1002002E0012000E001209E
:101EF80006B0BDE8F081000058C50A082DE9F8438E
:101F08009CB005000E0041F6E41955F80970307AC6
:101F180087F8800226F0AEFDC7F88402D6E90001F2
:101F2800D5E91A2399421FD190421DD17022002170
:101F380068462AF0C9FF08208DF80000D5E91A0183
:101F4800CDE90201307A8DF81000D6E90401CDE917
:101F5800060184208DF8200070236A46802128001D
:101F680026F062F900206AE0380033F090FE0400A1
:101F7800002C04D10020C7F8840270205FE094F898
:101F88005000411C84F85010317AC0B2204480F8C7
:101F980051105FF00108307A022802D004280ED0D0
:101FA8000EE0D6E9042394F8500020445130FEF79F
:101FB800A6F994F85000083084F8500007E006E0CD
:101FC800210055F8090033F08AFE0020804640467B
:101FD800C0B2002804D10020C7F88402A6202EE051
:101FE80001202074207C50F020002074207C207474
:101FF800207C50F04000207497F8FC00411C87F8C2
:10200800FC1060760120A0770020E0770820607738
:10201800032084F83800D6E90001C4E91001012042
:1020280084F8AA00002084F8A900322128000FF0C3
:102038004CFE00222100380033F05BFE00201DB06A
:10204800BDE8F083F8B59CB005000E0041F6E41039
:102058002F583078032820D1D6E90201D5E91A2370
:1020680099421AD1904218D17022002168462AF06C
:102078002BFF09208DF80000D5E91A01CDE90201EE
:10208800307E8DF8100084208DF8110070236A4688
:102098008021280026F0C8F88AE0380033F0F7FDE0
:1020A8000400002C00F0848001202074207C50F073
:1020B80020002074207C2074012084F8AA00307845
:1020C800022805D1022084F83800F088E08728E04B
:1020D8003078032817D1D6E9020100290BD100284E
:1020E80009D1022084F838004FF6FF70E0870020FD
:1020F80084F8AA0015E0032084F83800D6E9020124
:10210800C4E910010DE00221280026F0CEFC0028C9
:1021180006D0854BDFF8602A0221280026F0E1FC72
:1021280046E0E08F4FF6F871884208DBE08F4FF603
:10213800FE71884203D0002084F8AA0003E0207CC6
:1021480050F04000207494F85000411C84F850105E
:10215800317EC0B2204480F8511097F8FC00411C31
:1021680087F8FC1060760120A0770120E07709202D
:102178006077002084F8A9000421280026F095FC47
:10218800002809D0307E0090DFF8F039DFF8E82920
:102198000421280026F0A5FC012316F11802A2212B
:1021A800280007F07FFA00222100380033F0A1FD53
:1021B8001DB0F0BD68C50A0814C90A082DE9F04722
:1021C80080460D0041F6E41058F80090484633F078
:1021D8005EFD0400002C00F0A080287A032802D0BD
:1021E80004280BD015E094F85000411C84F85010D6
:1021F8000321C0B2204480F8511014E094F8500034
:10220800411C84F850100421C0B2204480F85110B9
:1022180009E094F85000411C84F85010297AC0B2A3
:10222800204480F85110D8E91A2394F8500020442B
:102238005130FEF764F894F85000083084F85000E4
:10224800DFF83C6940F22532310040462AF0FAFDB9
:102258000027D9F88000874259D2D9F87C00582144
:1022680001FB07F108448246DAE90023D5E90001B9
:102278008B4201D1824201D07F1CEAE794F85000DA
:10228800204410F1510203211AF108002AF0D8FB6A
:1022980094F85000103084F8500040F22F3231008A
:1022A80040462AF0D0FD01202074207C50F0200008
:1022B8002074207C2074207C50F04000207499F811
:1022C800FC00411C89F8FC1060760F206077032021
:1022D80084F83800D5E90001C4E910010120E0774D
:1022E800012084F8AA00002084F8A900182215F11A
:1022F800100114F120002AF0F7FD322140460FF0BA
:10230800E4FC00222100484633F0F3FC05E04FF4DA
:102318005372310040462AF096FDBDE8F087000070
:1023280094C50A087CC50A08A8C50A082DE9F84317
:102338009CB005000E001700984641F6E41055F8C9
:102348000090D6E90223D5E91A018B421DD18242B9
:102358001BD17022002168462AF0B6FD10208DF8A6
:10236800000030788DF80800D5E91A01CDE904019C
:10237800307C8DF8180084208DF8190070236A4687
:102388008021280025F050FF7FE0484633F07FFC8D
:102398000400002C79D094F85000411C84F85010A7
:1023A8003178C0B2204480F85110307C032802D024
:1023B80004280BD015E094F85000411C84F8501004
:1023C8000321C0B2204480F8511014E094F8500062
:1023D800411C84F850100421C0B2204480F85110E8
:1023E80009E094F85000411C84F85010317CC0B2C8
:1023F800204480F85110D6E9022394F85000204474
:102408005130FDF77CFF94F85000083084F85000F4
:1024180001202074207C50F020002074207C20743F
:10242800207C50F04000207499F8FC00411C89F889
:10243800FC1060760120A0770020E07710206077FC
:10244800032084F83800D6E90201C4E9100101200C
:1024580084F8AA00002084F8A900C4F8E470C4F83D
:10246800F080DFF82007C4F8EC00182216F11801F4
:1024780014F120002AF038FD322128000FF025FC45
:1024880000222100484633F034FC1DB0BDE8F0833B
:102498002DE9FC4782460D00914641F6E4105AF8B2
:1024A8000060002089F80000687CC00717D516F185
:1024B80097002AF020FB002811D10221306826F06D
:1024C800F4FA002807D0DFF8C036DFF8C02602216A
:1024D800306826F006FBA62089F80000F9E0687C41
:1024E800C00617D516F1A7002AF005FB002811D160
:1024F8000221306826F0D9FA002807D0DFF8903694
:10250800DFF888260221306826F0EBFAA62089F841
:102518000000DEE02878012808D02878B22805D005
:102528002878B02802D02878B1280BD12900504645
:1025380000F0DEF8002801D0002000E0A62089F88D
:102548000000C6E02878042816D02878032813D07D
:102558000221306826F0A9FA002809D028780090CE
:10256800DFF83036DFF824260221306826F0B9FA81
:10257800A62089F80000ACE0D5E90601002901D1C0
:10258800002807D0D5E90601DAE91A23994213D1C0
:10259800904211D1A62089F800000221306826F067
:1025A80084FA002807D0DFF8F035DFF8E0250221AB
:1025B800306826F096FA8CE00024DFF8D08540F2E7
:1025C800D232414650462AF03DFC0027D6F880001A
:1025D80087421AD2F06F582101FB07F100EB010C7A
:1025E800DCE90023D5E906018B4203D1824201D1FF
:1025F80064460AE0DCE90001002904D1002802D180
:10260800002C00D164467F1CE0E7002C16D1AE20D8
:1026180089F800004FF47972414650462AF013FCBD
:102628000221306826F041FA002806D0DFF86C3520
:1026380042460221306826F054FA4AE0D5E90601FC
:10264800C4E90001286AA061686AE061002020628C
:1026580000206062687C84F828000020E062102274
:10266800691C14F108002AF03FFC95F8280084F84A
:10267800300095F8290084F8310095F82A0084F88C
:10268800320095F82B0084F8340095F82C0084F873
:10269800350095F83D0084F8480095F83E0084F828
:1026A800490095F83F0084F85000102215F12D01DB
:1026B80014F136002AF018FC0020E06440F20142D0
:1026C800414650462AF0BFFB4246002150462AF0B8
:1026D80055F8BDE8F3870000D4C50A08BCC50A0848
:1026E80024C60A08A0C60A08A8C60A0844C60A08D2
:1026F8002DE9F0479AB004000D005FF0FF385FF055
:10270800000AA120ADF8100008A805901320069033
:10271800CDF81CA002AA04A9200005F017FA9DF81C
:102728000800002817D19DF82000002804D1B8F12E
:10273800000F00D5D0460BE09DF82100A97C884207
:1027480006D19DF832002978884201D1D04602E0AE
:102758001AF1010AD5E7B8F1000F30D4132200218D
:1027680008A82AF0B1FB01208DF82000A87C8DF87C
:10277800210028788DF832001022691C0DF1220002
:102788002AF0B2FBA120ADF8340008A80E9013205F
:102798000F90CDF8408003AA0DA9200005F0AEFEE9
:1027A800DFF8FC230021200029F0E8FF9DF80C0049
:1027B800002801D1012000E00020C0B2C9E0A1201A
:1027C800ADF8100008A80590132006900020079087
:1027D80002AA04A9200005F0B9F99DF8080000280C
:1027E80001D00020B5E000269DF821705FF00109B6
:1027F800A120ADF8100008A8059013200690CDF888
:102808001C9002AA04A9200005F0A0F99DF8080070
:10281800002802D05FF000080DE03900C9B29DF829
:102828002100081A012803DB4E469DF821100F00ED
:1028380019F10109DCE740F20149ADF8109012A83E
:10284800059020200690CDF81C8002AA04A920003B
:1028580005F07CF99DF80800002825D013220021F6
:1028680008A82AF031FB01208DF82000A87C8DF8FB
:10287800210028788DF832001022691C0DF1220001
:102888002AF032FBA120ADF8340008A80E901320DE
:102898000F90109603AA0DA9200005F02FFE9DF8B1
:1028A8000C0000281AD11BE09DF848003900C9B275
:1028B800884210D100200021CDE91401ADF83490F0
:1028C80012A80E9020200F90CDF8408003AA0DA9E1
:1028D800200005F013FE18F10108ACE7002038E0ED
:1028E8008DF80470012301AAA221200006F0A9FE98
:1028F8009DF804003900C9B2884215D1042120008E
:1029080026F0D3F8002807D0A87C0090A54BA44A4D
:102918000421200026F0E5F8012315F11202A22176
:10292800200006F0BFFE0EE00821200026F0BDF8CA
:10293800002808D03800C0B200909B4B984A082164
:10294800200026F0CEF8964A0021200029F016FF34
:1029580001201AB0BDE8F087C8C60A08B0C60A0840
:1029680008C70A082DE9F84785B081460C0015000C
:1029780041F6E41059F800A03422002128002AF07A
:10298800A3FA2078012802D02078B22817D16A4605
:102998006178484606F090FD002804D020789DF81C
:1029A8001210884202D0A620287081E010220DF172
:1029B8000201681C2AF098FA0020287078E0D4E90F
:1029C8000201002901D1002807D0D4E90223D9E95E
:1029D8001A018B4204D1824202D1A620287067E0F6
:1029E800724E40F2DA42310048462AF02BFA0027AC
:1029F800DAF88000874253D2DAF87C00582101FBCC
:102A080007F108448046D8E90023D4E902018B4243
:102A180001D1824201D07F1CEAE72078042802D045
:102A28002078032833D1102218F10801681C2AF0F5
:102A38005BFAD8F818006861D8F81C00A86198F803
:102A48002800287798F83000687798F83100A87738
:102A580098F83200E87798F8350085F8200098F85B
:102A6800490085F8310098F8500085F832001022A6
:102A780018F1360115F121002AF036FA00202870E5
:102A880040F2F242310048462AF0DDF910E0A62073
:102A9800287040F2F942310048462AF0D4F907E09C
:102AA80040F2FC42310048462AF0CDF9A6202870B1
:102AB80006B0BDE8F0872DE9F04704000D00904608
:102AC80041F6E41054F800902878012802D02878BC
:102AD800B22803D1A62088F800004AE0D5E902010F
:102AE800002901D1002807D0D5E90223D4E91A0129
:102AF8008B4205D1824203D1A62088F8000038E035
:102B08002B4E40F21652310020002AF09BF9002784
:102B1800D9F88000874223D2D9F87C00582101FBDC
:102B280007F108448246DAE90023D5E902018B421D
:102B380001D1824201D07F1CEAE700200021CAE9C6
:102B48000001002088F8000040F2225231002000E5
:102B58002AF079F932000021200029F00FFE08E060
:102B6800A42088F8000040F22952310020002AF001
:102B78006AF9BDE8F087000038C70A084CC70A0898
:102B88007CC70A08F1170308A4C70A0890C70A08EF
:102B9800E0C70A0828C80A0848C80A0868C80A080E
:102BA80074C80A088CC80A08C4C80A08ECC80A0805
:102BB80000C90A0810B50400E06A002801D1002005
:102BC80004E025F057FFE16A2AF0BFFB10BD0000C2
:102BD80010B50400042084F82100002084F848007F
:102BE800DFF8C00760630020A063002084F8240099
:102BF800012084F830000A2084F82700032084F894
:102C08002900B42084F8280094F8290084F82300C7
:102C18000C2084F82A00022084F82B00052084F870
:102C28002C00FA2084F82D000120A4F84A00012085
:102C3800A4F84C004FF6F770A4F84E007FF0270078
:102C480084F850003F2084F851001022DFF858170C
:102C580014F152002AF048F90F2084F862001E206F
:102C6800A4F86400172084F8660042F21070A06689
:102C7800042084F86C00142084F87400FF2084F881
:102C88007800012084F87900032084F87B0044F25E
:102C98006820E0674FF4C850C4F88000002020671F
:102CA800012084F875004FF47A70A4F88400A4F821
:102CB8008600DFF8F806C4F88800DFF8F406C4F8E0
:102CC8008C0010BD38B50400DFF8E85674222900DE
:102CD80020682AF0B7F8002084F87600002084F8ED
:102CE80077007D22290020682AF0ADF831BD2DE952
:102CF800FF4105000E00170041F6F0102C585FF058
:102D08000008002C02D1C220387049E3308878804E
:102D180000203870B6F9000041F20101401A6FD066
:102D2800C01F00F08880401E00F09680401E00F012
:102D3800B780401E00F0C380401E00F0CF80401EC8
:102D480000F0E580801E00F0F180401E00F01A813E
:102D5800401E00F02681F03800F03281401E00F05D
:102D68003C81401E00F04681401E00F05081C01E8C
:102D780000F05A81801E00F06481401E00F08981B5
:102D8800401E00F0AB81401E00F0B581401E00F0EF
:102D9800C881401E00F0D481401E00F0E081401E32
:102DA80000F0EA81801E00F0F481401E00F0FE81F0
:102DB800801E00F00882801E00F01A82401E00F07B
:102DC8002682401E00F04482001F00F07182401EDF
:102DD80000F05F82801E00F06E82401E00F0788254
:102DE800401E00F08282401E00F08C82401E00F0DF
:102DF8009C82401E00F0A682401E00F0B082BBE21A
:102E080000208DF80500B068012806D101227168FC
:102E18000DF105002AF068F801E0C1203870387813
:102E2800002840F0B3829DF8050010F00F002071D3
:102E380001208046AAE2B068042806D104227168FD
:102E480014F134002AF050F801E0C1203870002055
:102E5800A0630120804699E2B068012805D10122CB
:102E6800716801A82AF040F801E0C120387038786C
:102E7800002840F08B829DF80400002802D1C12070
:102E8800387083E29DF80400092802D3C120387005
:102E98007CE29DF8040084F821000120804675E258
:102EA800B068042806D10422716814F138002AF0A9
:102EB8001BF801E0C12038700120804666E2B06846
:102EC800012806D10122716814F122002AF00CF8B9
:102ED80001E0C12038700120804657E2B06801281F
:102EE80006D10122716814F1230029F0FDFF01E0E9
:102EF800C120387094F8270094F82310884203D230
:102F080094F8290084F82300012080463EE2B06846
:102F1800012806D10122716814F1240029F0E4FF88
:102F280001E0C1203870012080462FE2B0680128F6
:102F380006D10122716814F1300029F0D5FF01E0B3
:102F4800C120387000200090042302AAAD21280077
:102F5800FEF7E6F994F83000002804D0029850F003
:102F68001000029003E0029830F010000290002058
:102F78000090042302AAAD212800FEF7EAF90120F7
:102F8800804603E2B068012806D10122716814F175
:102F9800310029F0A9FF01E0C120387001208046E6
:102FA800F4E1B068012806D10122716814F13200F9
:102FB80029F09AFF01E0C120387001208046E5E140
:102FC800B068012806D10122716814F1480029F07F
:102FD8008BFF01E0C1203870D8E1B068022806D123
:102FE8000222716814F14A0029F07EFF01E0C12035
:102FF8003870CBE1B068022806D10222716814F15A
:103008004C0029F071FF01E0C1203870BEE1B068C2
:10301800022806D10222716814F14E0029F064FFDB
:1030280001E0C1203870B1E1B068012806D1012261
:10303800716814F1500029F057FF01E0C120387081
:10304800A4E1FF208DF80000B068012805D1012215
:103058007168684629F048FF01E0C12038709DF882
:10306800000001280ED09DF8000000280AD09DF825
:103078000000FE2806D09DF80000FF2802D0C120DD
:10308800387083E19DF8000084F8780001208046BC
:103098007CE101208DF80300B068012806D10122E7
:1030A80071680DF1030029F01FFF01E0C12038709D
:1030B8003878002840F06A819DF80300012806D07E
:1030C8009DF80300042802D0C12038705EE19DF805
:1030D800030084F879000120804657E1B068012890
:1030E80006D10122716814F17A0029F0FDFE01E091
:1030F800C12038704AE1B068012806D10122716800
:1031080014F17B0029F0F0FE01E0C120387094F83A
:103118007B00002802D1012084F87B000120804632
:1031280034E1B068042806D10422716814F18000E3
:1031380029F0DAFE01E0C12038700120804625E13F
:10314800B068012806D10122716814F1510029F0F4
:10315800CBFE01E0C12038700120804616E1B0683E
:10316800022806D10222716814F1840029F0BCFEFD
:1031780001E0C120387009E1B068022806D10222B6
:10318800716814F1860029F0AFFE01E0C1203870A3
:10319800FCE0B068102806D11022716814F15200C2
:1031A80029F0A2FE01E0C1203870EFE0B0680128E4
:1031B80006D10122716814F1620029F095FE01E040
:1031C800C1203870E2E0B068012806D10122716898
:1031D80014F1660029F088FE01E0C1203870012052
:1031E8008046012115F5CF50006801F0F9FDCDE0CA
:1031F800B068042806D10422716814F1680029F027
:1032080073FE01E0C120387001208046BEE0002036
:103218008DF80200B068012806D1012271680DF10D
:10322800020029F061FE01E0C12038709DF802001B
:10323800052803D29DF80200002802D1C120387069
:10324800A4E09DF8020084F86C00012080469DE00F
:1032580000208DF80100B068012806D101227168AC
:103268000DF1010029F040FE01E0C12038709DF801
:103278000100002803D09DF80100152802D3C120C1
:10328800387083E09DF8010084F8740001208046BE
:103298007CE0B068042806D10422716814F170003B
:1032A80029F022FE01E0C1203870012080466DE03F
:1032B800C22038706AE0B068012806D1012271681E
:1032C80014F1760029F010FE01E0C12038705DE0AD
:1032D800B068012806D10122716814F1770029F03D
:1032E80003FE01E0C120387050E0B068022806D122
:1032F8000222716814F1640029F0F6FD01E0C12092
:10330800387043E0B068012806D10122716814F1D1
:10331800750029F0E9FD01E0C1203870012115F59B
:10332800CF50006801F05CFD30E0B068042806D199
:103338000422716814F17C0029F0D6FD01E0C12057
:10334800387023E0B068042806D10422716814F1AB
:10335800880029F0C9FD01E0C120387016E0B06886
:10336800042806D10422716814F18C0029F0BCFDF0
:1033780001E0C120387009E0B6F90000B0F5905FAF
:1033880002DBC220387001E0C92038704046C0B264
:10339800002805D0DFF854260021280029F0EEF98E
:1033A800BDE8FF810088100238650B08C0270900B6
:1033B800B000090020C90A082DE9FF4105000E00E8
:1033C800170041F6F0102C58002C02D1C22038709A
:1033D8000AE30020387030887880DFF8148640F2DD
:1033E80003224146280029F02DFDB6F9000041F2DC
:1033F8000101401A00F08880401F00F09180801E73
:1034080000F0AC80401E00F0B680401E00F0C08086
:10341800401E00F0CA80401E00F0D480401E00F01C
:10342800DE80801E00F0E880401E00F0FF80401E15
:1034380000F00981F03800F06181401E00F06B81D6
:10344800401E00F07581401E00F07F81C01E00F014
:103458008981801E00F0A081401E00F0AA81401ED4
:1034680000F0B481401E00F0BE81401E00F0C8810B
:10347800401E00F08481401E00F0CF81401E00F005
:10348800D981801E00F0E381401E00F0ED81801E8E
:1034980000F0F781801E00F00182401E00F00B82D0
:1034A800401E00F01582001F00F02C82401E00F024
:1034B8001C82801E00F03582401E00F03F82401EB4
:1034C80000F04982401E00F05382401E00F05D82E9
:1034D800401E00F06782401E00F07182DA3800F06A
:1034E8009880401E00F0BC80401E00F0C680401E40
:1034F80000F0D080401E00F0DA80401E00F0E4802A
:10350800401E00F0EE8067E2B068012805D1012274
:10351800211D706829F0E8FC01E0C12038705DE2E7
:10352800082302AA9A21280006F08BF8DDE9020197
:10353800002901D1002801D0012000E0002084F8F2
:103548002F00B068012806D1012214F12F017068FC
:1035580029F0CAFC01E0C12038703FE2B0680428B5
:1035680006D1042214F13401706829F0BDFC01E091
:10357800C120387032E2B068012806D1012214F166
:103588002101706829F0B0FC01E0C120387025E203
:10359800B068042806D1042214F13801706829F0B3
:1035A800A3FC01E0C120387018E2B068012806D1F8
:1035B800012214F12201706829F096FC01E0C12073
:1035C80038700BE2B068012806D1012214F12301FA
:1035D800706829F089FC01E0C1203870FEE1B0680C
:1035E800012806D1012214F12401706829F07CFC1D
:1035F80001E0C1203870F1E1B068012806D101224C
:1036080014F13001706829F06FFC01E0C1203870B6
:10361800E4E1B068012806D1012214F1270170689D
:1036280029F062FC01E0C1203870D7E1B0680128B8
:1036380006D1012214F13101706829F055FC01E02E
:10364800C1203870CAE1B068012806D1012214F1FE
:103658003201706829F048FC01E0C1203870BDE1F2
:10366800B068012806D1012214F12801706829F0F8
:103678003BFC01E0C1203870B0E1B068012806D1F8
:10368800012214F12901706829F02EFC01E0C12003
:103698003870A3E1B068012806D1012214F12A018B
:1036A800706829F021FC01E0C120387096E1B0680B
:1036B800012806D1012214F12B01706829F014FCAD
:1036C80001E0C120387089E1B068012806D10122E3
:1036D80014F12C01706829F007FC01E0C120387052
:1036E8007CE1B068012806D1012214F12D0170682F
:1036F80029F0FAFB01E0C12038706FE1B0680128B9
:1037080006D1012214F14801706829F0EDFB01E0AF
:10371800C120387062E1B068022806D1022214F193
:103728004A01706829F0E0FB01E0C120387055E1DA
:10373800B068022806D1022214F14C01706829F001
:10374800D3FB01E0C120387048E1B068022806D1F7
:10375800022214F14E01706829F0C6FB01E0C12075
:1037680038703BE1B068012806D1012214F15001FC
:10377800706829F0B9FB01E0C12038702EE1B0680B
:10378800012806D1012214F15101706829F0ACFB1F
:1037980001E0C120387021E1B068012806D101227A
:1037A80014F17801706829F09FFB01E0C12038709E
:1037B80014E1B068012806D1012214F1790170687A
:1037C80029F092FB01E0C120387007E1B0680128B8
:1037D80006D1012214F17A01706829F085FB01E015
:1037E800C1203870FAE0B068012806D1012214F12E
:1037F8007B01706829F078FB01E0C1203870EDE0AA
:10380800B068042806D1042214F18001706829F0F8
:103818006BFB01E0C1203870E0E0B068022806D1F7
:10382800022214F18401706829F05EFB01E0C120D6
:103838003870D3E0B068022806D1022214F186015C
:10384800706829F051FB01E0C1203870C6E0B0680B
:10385800102806D1102214F15201706829F044FB97
:1038680001E0C1203870B9E0B068012806D1012212
:1038780014F16201706829F037FB01E0C12038704B
:10388800ACE0B068012806D1012214F16601706825
:1038980029F02AFB01E0C12038709FE0B0680428B5
:1038A80006D1042214F16801706829F01DFB01E0BB
:1038B800C120387092E0B068012806D1012214F1C5
:1038C8006C01706829F010FB01E0C120387085E0B8
:1038D800B068012806D1012214F17401706829F03A
:1038E80003FB01E0C120387078E0B068042806D1F5
:1038F800042214F17001706829F0F6FA01E0C12081
:1039080038706BE025F0B6F80090B068042805D14F
:1039180004226946706829F0E7FA01E0C12038708E
:103928005CE0B068012806D1012214F176017068C4
:1039380029F0DAFA01E0C12038704FE0B0680128B8
:1039480006D1012214F17701706829F0CDFA01E05F
:10395800C120387042E0B068022806D1022214F172
:103968006401706829F0C0FA01E0C120387035E0C0
:10397800B068012806D1012214F17501706829F098
:10398800B3FA01E0C120387028E0B068042806D1F5
:10399800042214F17C01706829F0A6FA01E0C12024
:1039A80038701BE0B068042806D1042214F188019D
:1039B800706829F099FA01E0C12038700EE0B0680B
:1039C800042806D1042214F18C01706829F08CFABD
:1039D80001E0C120387001E0C920387040F2D622D9
:1039E8004146280029F02FFABDE8FF8130C90A08AE
:1039F8003CC90A082DE9F84185B004000D001600FD
:103A08001F00DDF83080ADF8045002960397CDF81A
:103A180010806A4601A92000FFF7CEFC9DF800003F
:103A280006B0BDE8F0812DE9F84185B004000D002D
:103A380016001F00DDF83080ADF804500296039799
:103A4800CDF810806A4601A92000FFF750F99DF8CB
:103A5800000006B0BDE8F0817CB504000D0041F21D
:103A6800010600200090012301AA31002000FFF781
:103A7800C1FF9DF8040028438DF804000020009041
:103A8800012301AA31002000FFF7CDFF76BD7CB5E8
:103A980004000D0041F2010600200090012301AA54
:103AA80031002000FFF7A6FF9DF80400A8438DF819
:103AB800040000200090012301AA31002000FFF734
:103AC800B2FF76BD7CB504000D000020019041F2E4
:103AD8001E1600200090042301AA31002000FFF7E1
:103AE80089FF01982843019000200090042301AA2F
:103AF80031002000FFF797FF76BD7CB504000D006C
:103B08000020019041F21E1600200090042301AA13
:103B180031002000FFF76EFF0198A84301900020B4
:103B28000090042301AA31002000FFF77CFF76BD36
:103B38003EB504000D0000200190002000900423F1
:103B480001AA41F21E112000FFF754FF01982842F4
:103B580001D0012000E00020C0B23EBD38B505000C
:103B6800982029F0A9F80400002C01D100200CE0CD
:103B780098220021200029F0A7F925602000FFF7EE
:103B880027F82000FFF79EF8200032BD10B504008A
:103B9800002C02D0200029F0AFF810BD10B50400A9
:103BA80041F6F0102058FFF78DF810BD30B4010031
:103BB80004200022072A0DD2584B0C0013F812508B
:103BC800E4B2AC4204D103EB42035B78180001E095
:103BD800521CEFE7C0B230BC704730B40100C420BB
:103BE8000022072A0DD24D4B0C0003EB42056D78DD
:103BF800E4B2AC4203D113F81230180001E0521CB1
:103C0800EFE7C0B230BC70472DE9F84305000E005D
:103C180000275FF00008DFF808916C224946280069
:103C280029F010F941F6E4102958D1F854122A580D
:103C380012F51572914203D02958D1F8544200E088
:103C48000024002C1AD0B4F164010F003100C9B26D
:103C5800FF2905D097F876103200D2B2914203D1ED
:103C680097F87A00804609E021682A5812F51572FB
:103C7800914201D02468E4E70024E2E7742249462F
:103C8800280029F0E0F84046C0B2BDE8F2832DE9EB
:103C9800F84305000E001700DFF888907E22494699
:103CA800280029F0CFF841F6F010285880F89060E5
:103CB80041F6E4102958D1F854122A5812F5157211
:103CC800914203D02958D1F8544200E00024002C36
:103CD8001CD0B4F1640188463900C9B2FF2902D169
:103CE80088F87A6008E098F876103A00D2B29142E3
:103CF80002D188F87A6009E021682A5812F515720D
:103D0800914201D02468E2E70024E0E78D22494689
:103D1800280029F098F8BDE8F183000078C90A085E
:103D280048C90A0860C90A0841F6F011405890F8D5
:103D380021007047F8B506000F001500390089B258
:103D4800300007F0E9F90400002C01D1002011E04F
:103D5800207D01280AD1002D03D0D4E90201C5E94C
:103D68000001300006F0BDFD012003E0300006F040
:103D7800B8FD0020F2BD2DE9F041804614001D0079
:103D8800069E22002B00404607F00CFA0700002F81
:103D980001D1002015E0387D012805D0387D05289F
:103DA80002D0387D062808D1002E01D0388A30800C
:103DB800404606F096FD012003E0404606F091FDDE
:103DC8000020BDE8F0812DE9F84F07000D004FF401
:103DD800CF59280057F80910898B80B2884202D140
:103DE800D7E91A013BE0290089B2380007F094F9B5
:103DF8000400002C0DD0D4E902AB380006F071FDA8
:103E0800BBF1000F02D1BAF1000F02D0504659465B
:103E180025E05FF0000857F80900D0F8D401804584
:103E28001BD257F80900D0F8D0015FEA08110844FE
:103E38000600D6E90001002901D100280AD03089FE
:103E4800290089B2884205D124F014FEF060D6E931
:103E5800000104E018F10108DDE700200021BDE8B9
:103E6800F48F2DE9F84386B0070014001D001822CE
:103E78000021684629F028F803208DF80000CDE9D4
:103E88000245694638002DF0DFF9002804D017F5FF
:103E9800CF500068808B38E022002B00380007F0F4
:103EA80081F90600002E07D0B6F81090380006F009
:103EB80018FD484680B228E05FF000094FF4CF5063
:103EC8003958D1F8D41189451DD23858D0F8D001C5
:103ED8005FEA091108448046D8E90001002901D1A8
:103EE80000280DD0D8E90001A94201D1A04200D094
:103EF80006E024F0BFFDC8F80C00B8F8080004E09C
:103F080019F10109DAE74FF6FF7007B0BDE8F08351
:103F18002DE9FF4106000F0014001D00DDF8288080
:103F2800D7E90001002901D1002805D0D7E900010F
:103F3800A94201D1A0421CD00821300024F0B5FDCF
:103F480000280CD0404680B2029001940095DFF81A
:103F5800B43BDFF8B42B0821300024F0C2FD4FF445
:103F6800CF503158D1F8D811491C3058C0F8D81161
:103F780017E03889414689B2884212D008213000BA
:103F880024F093FD00280CD0404680B202900194A2
:103F98000095DFF8783BDFF8702B0821300024F01B
:103FA800A0FDA7F80880C7E9004524F063FDF86084
:103FB800BDE8FF812DE9F84F98B080468946140086
:103FC8001D004FF4CF5B58F80B00079000200A90B3
:103FD8000020089000208DF81400302200210CA841
:103FE80028F072FFADF84C90484680B24FF6F87151
:103FF800884205DB48464FF6FE7180B2884203D1FD
:10400800002D11D1002C0FD10821404624F04DFD80
:10401800002807D0DFF8F83ADFF8F82A08214046E8
:1040280024F05FFD012003E3484680B2002840F0F9
:104038008E8048460799898B80B2884201D1012039
:10404800F6E2494689B2404607F066F806900698B7
:1040580000281FD00698D0E90201002917D10028AE
:1040680015D10698C0E902450821404624F01DFDF7
:1040780000280CD002940195484680B20090DFF8E1
:10408800983ADFF8902A0821404624F02AFD404655
:1040980006F027FC5FF0000B5FF0000A0798D0F8E5
:1040A800D401824519D20798D0F8D0015FEA0A11E5
:1040B80008440600D6E90001002906D1002804D1E9
:1040C800BBF1000F00D1B34604E03089002801D1CC
:1040D800B34602E01AF1010AE0E7BBF1000F20D174
:1040E8000821404624F0E1FC002807D0DFF82C3AEC
:1040F800DFF8202A0821404624F0F3FC022140463C
:1041080024F0D3FC00280AD04FF484700090DFF824
:10411800103ADFF8002A0221404624F0E2FC012090
:1041280086E2DBE9000100290BD1002809D14846C5
:1041380080B2009022002B0059464046FFF7E8FE67
:1041480003E024F097FCCBF80C00012070E2220079
:104158002B00404607F026F80990494689B24046A8
:1041680006F0DAFF0690099800283CD00698002847
:1041780039D009980699884209D1404606F0B1FB22
:10418800404606F0AEFB01208DF81400E6E00698E4
:10419800D0E90201002917D1002815D1002206997B
:1041A800079806F0A2FE4A4692B2099958F80B0001
:1041B80006F024FF404606F094FB404606F091FBCB
:1041C80001208DF81400C9E00821404624F06DFC58
:1041D800002807D0DFF84C39DFF838290821404695
:1041E80024F07FFCB3E10998002800F0808009984A
:1041F800008A494689B2884206D1404606F071FBDA
:1042080001208DF8140014E048460799898B80B284
:1042180088420ED10821404624F047FC002807D0E8
:10422800DFF80439DFF8EC280821404624F059FC6F
:104238008DE1002007000798D0F8D401874248D2C2
:104248000798D0F8D001390108440600D6E90001E2
:10425800002901D100283AD0D6E90001A94212D19B
:10426800A04210D14FF6FF70308100200021C6E92E
:10427800000158F80B00D0F8D801401E58F80B1070
:10428800C1F8D80123E03089494689B288421ED155
:104298004FF6FF70308100200021C6E9000158F870
:1042A8000B00D0F8D801401E58F80B10C1F8D801FF
:1042B8000821404624F0F9FB002807D0DFF86C38C5
:1042C800DFF850280821404624F00BFC3FE17F1C12
:1042D800B1E74A4692B2099958F80B0006F08EFEEB
:1042E800404606F0FEFA01208DF8140036E00698E4
:1042F800002833D00698D0E90201002905D100280A
:1043080003D10698C0E9024522E00698D0E90201E7
:10431800A94201D1A0421BD00821404624F0C5FB88
:10432800002814D00698D0E9020104900698D0E934
:104338000201039102940195484680B20090DFF88B
:10434800F037DFF8D0270821404624F0CAFBFEE00A
:10435800404606F0C6FA01208DF814009DF81400B6
:10436800002801D0012063E148460799898B80B273
:10437800884216D1D8E91A018D4203D1844201D16D
:10438800012055E10821404624F08FFB002807D082
:10439800DFF8A037DFF87C270821404624F0A1FB8E
:1043A800D5E0D8E91A018D4203D1844201D1012018
:1043B8003EE1002007000798D0F8D401874280F03A
:1043C80081800798D0F8D001390108440600D6E961
:1043D8000001002906D1002804D10A98002800D13C
:1043E8000A966DE05FF0000A3089002816D0D6E9F9
:1043F8000023404632F097FB00280FD10898002888
:1044080005D00898C168F06828F09FFF8246089890
:10441800002802D0BAF1000F00D00896D6E90001B2
:10442800A94239D1A04237D13089494689B2884258
:1044380004D124F01FFBF0600120F9E0079800F296
:10444800D47028F0AEFE002814D00821404624F08D
:104458002CFB00280CD0484680B2029001940095AD
:10446800DFF8D436DFF8AC260821404624F039FBC3
:104478000020DDE0484680B2009022002B00310089
:104488004046FFF745FD41F28831079800F2D470A5
:1044980028F0DAFE0120CBE03089494689B288420B
:1044A8000ED10821404624F000FB002807D0DFF891
:1044B8008C36DFF860260821404624F012FB46E0DF
:1044C8007F1C78E70A9800280AD0484680B20090F6
:1044D80022002B000A994046FFF71AFD0120A7E0A9
:1044E8000898002823D00821404624F0DEFA002846
:1044F80012D00898008902900898D0E9000101902C
:104508000898D0E900010091DFF83436DFF8042676
:104518000821404624F0E5FA484680B2009022007F
:104528002B0008994046FFF7F3FC012080E00821A2
:10453800404624F0BAFA002807D0DFF80836DFF83A
:10454800D4250821404624F0CCFA012070E00698D2
:10455800002811D00CA89DF84E1000EBC102069857
:10456800D0E90201C2E908019DF84E00401C8DF80F
:104578004E00404606F0B5F90998002818D04A467A
:1045880092B2099958F80B0006F038FD0CA89DF86E
:104598004E1000EBC1020998D0E90201C2E90801F6
:1045A8009DF84E00401C8DF84E00404606F099F9E3
:1045B800079810F5F76028F0F4FD002801D00020D6
:1045C80036E09DF88800002826D100233AA2302141
:1045D800404628F0A0FB8246BAF1000F1AD042F2FA
:1045E8001071079810F5F76028F02EFE30220CA9FC
:1045F800504628F079FCCDF800A00FF29903DFF8B7
:1046080048255146404628F0ADFD41F288315046D4
:1046180028F01AFE00200BE041F28831079810F5C7
:10462800F76028F011FE0CA9079800F004F80020A4
:1046380019B0BDE8F08FF8B505000E00B08BA98B56
:10464800884202D1280000F0B6F900273800B17F6F
:10465800C0B2884214D23800C0B206EBC000D0E91C
:104668000823286806F09EFD0400002C06D02100CF
:10467800280000F0DAF9286806F033F97F1CE5E72E
:104688000D200090B38B02224FF6FD7128680CF0C4
:1046980084FEF1BD70B504000D002E00310014F544
:1046A800CF500068FFF7C7FF002303A231002000A6
:1046B80028F03AFB70BD0000000000002DE9F34F20
:1046C80085B0824616001F001AF5CF5005685FF0C6
:1046D800000B5FF00008D5F8D40180455ED2D5F80C
:1046E800D0015FEA0811084404900498D0E9000159
:1046F800002901D100284ED09DF81800002825D0A7
:10470800049800890021B94245D1B04243D108211B
:10471800504624F0CAF900280BD011980290CDE930
:104728000067DFF82834DFF828240821504624F0F1
:10473800D8F900200021049AC2E90001D5F8D8016F
:10474800401EC5F8D8010120834624E00498D0E92A
:104758000001B9421FD1B0421DD10821504624F0B2
:10476800A4F900280BD01198029001960097DFF861
:10477800E433DFF8DC230821504624F0B2F90020A6
:104788000021049AC2E90001D5F8D801401EC5F8F5
:10479800D8010120834618F101089CE75846C0B2A9
:1047A800002801D001209FE09DF84000002800F07B
:1047B800998040F28522DFF89813286828F042FB98
:1047C800D5F8B80115F5DC71884202D0D5F8B841A2
:1047D80000E00024002C00F07F8003944FF6FF795E
:1047E8000398008A48456ED09DF81800002843D0E9
:1047F8000398008A0021B94265D1B04263D1039879
:10480800D0E90201002921D100281FD10398007D99
:10481800002830D00398007D01282CD0082150466C
:1048280024F043F9002809D011980290CDE90067D7
:10483800C94BC74A0821504624F053F9002203996E
:10484800280006F052FB0120834614E00821504658
:1048580024F02BF9002809D011980290CDE90067BF
:10486800BE4BBB4A0821504624F03BF90398A0F8F8
:104878001090012083462FE00398D0E90201B94245
:1048880021D1B0421FD10398007D00281AD0039887
:10489800007D012816D00821504624F006F900288A
:1048A80009D011980290CDE90067AB4BA84A0821BE
:1048B800504624F016F900220399280006F015FB4B
:1048C8000120834608E0206815F5DC71884201D094
:1048D80024687FE700247DE740F2AD229C492868E0
:1048E80028F0B1FA5846C0B207B0BDE8F08F30B42E
:1048F8000021D0F8D421914210D200220023D0F810
:10490800D0410D012C44C4E90023D0F8D0210B017B
:104918001A444FF6FF731381491CEAE70022C0F8D6
:10492800D82130BC7047F8B5060016F5CF50076897
:10493800B7F8880800280CD0B7F888084FF6F8713F
:10494800884206DAB7F888080021A7F8881880B2E4
:1049580030E0386828F089FA04002000000A0500D1
:104968004FF6F871280080B2884216DA4FF6FE72C8
:10497800280080B2904210D0280080B200280CD0C5
:104988002800BB8B80B2984207D0280080B28842AA
:1049980004DB280080B2904200D0DAE7290089B20F
:1049A8003868FFF710FA002901D1002800D0D0E7B5
:1049B800280080B2F2BD38B50500A88B002833D096
:1049C80095F8980100281DD0A98B280035F0F0FA39
:1049D80010208DF802002868FFF7A5FFADF8000049
:1049E80002236A469621286804F05CFE04236A467E
:1049F8000421286823F018FC594A0021286827F068
:104A0800BDFE11E0286806F0D9FC0400002C0BD08C
:104A180001200090D4E90223218A280008F024FE0E
:104A2800286805F05EFFFFE731BDF8B584B00400E3
:104A38000D00E87C002863D0287D042815D1D5E92D
:104A48000201002901D1002809D046480190002020
:104A58000090D5E9022300212068FFF72FFE0022ED
:104A68002900200006F041FA4AE0287D052805D0F3
:104A7800287D062802D0287D012841D1E87C02281B
:104A88003ED101272068FFF74EFF060000222900CB
:104A9800200005F02FFF0821206824F006F80028E0
:104AA80010D0300080B20390D5E902010290D5E918
:104AB80002010191288A00902B4B2C4A082120687A
:104AC80024F00FF8A87CC0B2C00810F001000390D1
:104AD8003800C0B2029000200190300080B20090EF
:104AE800D5E90223298A200008F0E0FE3800C0B288
:104AF800002805D0320092B22900200006F07EFA84
:104B080005B0F0BDA4C90A0888C90A08E4C90A089A
:104B180038CA0A0824CA0A0868CA0A089CCA0A08BD
:104B2800CCCA0A08E8CA0A0814CB0A084CCB0A08F7
:104B380090CB0A08D8CB0A0810CC0A086CCC0A0813
:104B4800A0CC0A08E4CC0A0818CD0A084CCD0A08FB
:104B580030CD0A0878CD0A08A8CD0A08CCCD0A08B5
:104B6800F8CD0A0838CE0A0844CE0A0818CE0A0832
:104B78002DE9FC4F83B006000F0090460E9C5FF0B5
:104B8800000A5FF0000BA146BB454CD20C22002165
:104B9800684628F099F9B7EB0B00032843D316F8B9
:104BA8000B008DF8000006EB0B004078ADF8020012
:104BB800BDF80200C01CB7EB0B01884204D2BDF857
:104BC80002A01AF1030A01E0B7EB0B0A01236A46B7
:104BD800514606EB0B0028F00BFC0500012D02DB0B
:104BE8000198002800D11EE015EB0B0B9DF83C0046
:104BF800002809D0002C07D09DF80020210040464D
:104C080028F0BBFC0028BFD101236A460499B1EB08
:104C1800090108EB090028F0E4FC0500012D02DB7E
:104C280015EB0909B0E7B9EB04042000C0B205B0E0
:104C3800BDE8F08FF8B584B004000D001600002020
:104C4800ADF8000001A8DFF88C1891E88C0080E826
:104C58008C0094F82B01002805D0BDF8000050F016
:104C68000100ADF8000094F82C01002805D0BDF82B
:104C7800000050F00200ADF8000094F82A01002866
:104C880005D0BDF8000050F00400ADF80000BDF8F4
:104C9800000050F05800ADF8000094F89E0100287C
:104CA80005D0BDF8000050F08000ADF8000068465F
:104CB8000290012301AA3100C9B2280028F091FC12
:104CC80005B0F0BD2DE9FF4105000E0017005FF0AB
:104CD800000800208DF8080000200090012302AA97
:104CE80041F223112868FEF785FE9DF80800002888
:104CF8000FD10821286823F0D8FE002807D0DFF854
:104D0800D837DFF8D8270821286823F0EAFE0020E2
:104D180063E03800C0B2032801D200205DE095F8B6
:104D2800BC00002810D0002001904046C0B200907E
:104D38003B00DBB2320095F8BC1015F15000FFF7CC
:104D480017FF040014EB0808042203A92800FFF742
:104D580071FF01280EDB012001904046C0B200908F
:104D68003B00DBB23200042103A8FFF701FF10EB80
:104D78000800804695F82901002824D001200190D8
:104D88004046C0B200903B00DBB2320095F82911D2
:104D980015F1BD00FFF7ECFE04000821286823F098
:104DA80084FE00280DD095F8290101902000C0B29A
:104DB8000090DFF82C37DFF824270821286823F033
:104DC80090FE14EB08084046C0B2022802D35FFAEE
:104DD80088F801E05FF00008404604B0BDE8F081C3
:104DE8002DE9F84F9CB005008A462E685FF0000850
:104DF8005FF0000BD5E90801002903D1002801D193
:104E08000020D0E06C22002101A828F05DF801AF55
:104E18000020414689B2785418F10108C1465FF074
:104E28000008A87F10F00F0050EA080858F0200882
:104E380095F83D00C00210F4F04050EA0808280038
:104E480006F035F9002803D058F4806858F4004873
:104E5800414689B201A84A4692B21044FBF70AFAC1
:104E680019F10209D5E9082301A8494689B208447D
:104E7800FBF745FA19F108097FF07F4101A84A4676
:104E880092B21044FBF7FCF919F10309287E494650
:104E980089B2785419F101094F46D7F16C02D2B2A0
:104EA80001A8390089B201442800FFF70BFF8146A9
:104EB8004846C0B2C719ADF800705046C0B20028C5
:104EC8000FD1B5F84203BDF80010884209D16C2211
:104ED80001A905F2D62028F027F8002801D10120E1
:104EE80061E06C2201A905F2D62027F0FDFFBDF88C
:104EF8000000A5F84203DFF8ECB5D6225946300089
:104F080027F0A0FFD5F8980215F52671884202D03F
:104F1800D5F8987200E00027002F3ED03C00207B97
:104F2800002831D0B5F8422305F2D621A06829F02F
:104F3800D4FD00280DD10221286823F0B6FD0028F1
:104F480006D0DFF8A4355A460221286823F0C9FDA7
:104F58001AE000234A46D2B244F2A601A06829F01A
:104F6800ADFD002810D14846C0B200280CD004215D
:104F7800286823F09AFD002806D0DFF8A83B5A4697
:104F88000421286823F0ADFD386815F5267188429C
:104F980001D03F68C0E70027BEE7E9225946300044
:104FA80027F051FF01201DB0BDE8F08F2DE9F8432F
:104FB800060016F5CF5007685FF00008DFF8689B19
:104FC800FA224946300027F03DFFD7F8980217F536
:104FD8002671884202D0D7F8984200E00024002CBD
:104FE80023D0250000234246D2B244F2A501A86886
:104FF80029F02CFD00280FD10221300023F055FDA7
:10500800002809D0A86808300090DFF8203B4A46FD
:105018000221300023F065FD206817F526718842CB
:1050280001D02468DBE70024D9E740F2031249469F
:10503800300027F008FFBDE8F1832DE9F24FA4B056
:10504800070017F5CF50D0F800A0DDF890809AF847
:105058009801002800F03B82D8F80010380002F0D0
:10506800A1FA8DF8100018A829F0F0FF00208DF89B
:10507800690098F80C00002803D100208DF864001E
:10508800EAE198F80C00012840F0E581B8F8220020
:10509800ADF812004FF6FE7BBDF8120000280ED1C5
:1050A8000821380023F001FD002807D0DFF8803AF6
:1050B800DFF8802A0821380023F013FD07E298F86A
:1050C8000D0003280ED00821380023F0EEFC00283C
:1050D80007D0DFF8683ADFF85C2A0821380023F0A7
:1050E80000FDF4E1D8E90445BDF8122018F12801C3
:1050F80007A829F0A6F900280ED50821380023F0C2
:10510800D4FC002807D0DFF8383ADFF8282A08212D
:10511800380023F0E6FCDAE1BDF82400002812D1BB
:10512800BDF81C0000280ED10821380023F0BDFC72
:10513800002807D0DFF80C3ADFF8F82908213800F2
:1051480023F0CFFCC3E19AF89E01002812D0BDF8E5
:105158002C0001280ED00821380023F0A6FC0028D6
:1051680007D0DFF8E439DFF8CC290821380023F02C
:10517800B8FCACE1BDF8240000281FD0BDF824001D
:105188000A2840F0A4810A98FBF766F8CDE90001E7
:105198000A980830FBF722F88346DAE90801002963
:1051A80002D1002800F09381DDE90023DAE9080143
:1051B8008B4202D1824200F0888088E1DFF874993E
:1051C80040F26B124946380027F03CFE9AF8A301DA
:1051D800022813D10821380023F067FC002806D0E4
:1051E800DFF868394A460821380023F07AFC4FF482
:1051F800B7724946380027F026FE68E19AF8A301FD
:1052080000285CD09AF8A301012834D1DAF82802E2
:105218001AF50A71884202D0DAF8286200E00026FE
:10522800002E10D002960298D0E902018D4201D1D9
:10523800844208D030681AF50A71884201D036686D
:10524800EEE70026ECE7002E39D10821380023F0DC
:105258002CFC002808D001940095DFF8F4384A4661
:105268000821380023F03DFC4FF4C172494638004C
:1052780027F0E9FD2BE10821380023F016FC00286F
:1052880006D0DFF8D0384A460821380023F029FC38
:105298004FF4C5724946380027F0D5FD0221380081
:1052A80023F003FC002809D040F28B100090DFF8AF
:1052B800A8384A460221380023F013FC07E14FF4CE
:1052C800C7724946380027F0BEFDBDF81C0000280B
:1052D8003BD008980078C0070ED40821380023F086
:1052E800E4FB002807D0DFF87438DFF848280821E5
:1052F800380023F0F6FBEAE09AF86D0300280ED197
:105308000821380023F0D1FB002807D0DFF85038F7
:10531800DFF820280821380023F0E3FBD7E00898BD
:105328000078800700F1D38008980078400700F1E2
:10533800CE800898007810F0180F40F0C8800898C0
:10534800007810F0E00F40F0C2809AF89E01002823
:105358007DD0D8F80010504602F064F8002876D0C6
:1053680012A829F039FFADF84CB0CDE91445002357
:105378000DF111020421D8F8000029F0C2FA002822
:1053880010D10221380023F090FB002807D0DFF865
:10539800D437DFF8A0270221380023F0A2FB002031
:1053A8008DF811009DF8112098F918100C9890F9B3
:1053B800000040B229F08CF98DF84E0098F81800DA
:1053C8008DF84F0005AA12A9D8F80000D8F80030C7
:1053D800D3F8A43098479DF8180000281AD008215F
:1053E800380023F062FB00280FD09DF818000390C6
:1053F80002940195584680B20090DFF86C37DFF8C8
:1054080034270821380023F06CFB9DF94E008DF8F5
:1054180010001CE0684629F0BBFEADF804B0CDE9E9
:1054280002451EAA6946D8F80000D8F80030D3F81B
:10543800A03098479DF87C00002804D19DF97D0094
:105448008DF8100003E09DF94E008DF81000012042
:105458008DF8640000E03AE00020ADF86600002016
:105468008DF865009AF8D1058DF868009DF8100050
:105478008DF86E000FAA18A9D8F8000029F070FE60
:1054880000280ED10821380023F00FFB002807D090
:10549800DFF8D836DFF89C260821380023F021FBF6
:1054A80015E09DF84000002811D00821380023F0AD
:1054B800FCFA00280AD09DF840000090DFF8B036CA
:1054C800DFF870260821380023F00BFBFFE725B032
:1054D800BDE8F08FA0D50A08A4CE0A0888CE0A082D
:1054E800C8CE0A08F0CE0A0808CF0A082DE9F24FFC
:1054F800A4B0040014F5CF50D0F8008024980C9084
:105508000C9810F11005280029F0F5FDADF82A00D7
:105518000C9850300B90002700200E9001208DF839
:1055280029000C98B0F84A00ADF83400BDF83400F2
:105538006D280ED30821200023F0B7FA002807D0E1
:10554800DFF83036DFF830260821200023F0C9FACA
:10555800E4E2BDF834008DF828004FF6FF7AA888F9
:1055680050450ED10821200023F09FFA002807D0CB
:10557800DFF80836DFF800260821200023F0B1FA0A
:10558800CCE2A879022813D0A879032810D00821E2
:10559800200023F08AFA002809D0A8790090DFF8C3
:1055A800E035DFF8D4250821200023F09AFAB5E287
:1055B8009DF828000F2813D20821200023F075FA3F
:1055C80000280CD00F2001909DF828000090DFF8EB
:1055D800B435DFF8A4250821200023F082FA9DE2E3
:1055E8007E1C0B98FFB2C05D00280ED00821200059
:1055F80023F05BFA002807D0DFF88C35DFF8782530
:105608000821200023F06DFA88E20B983100C9B216
:105618000844FAF7E3FD8346B61C3022002118A897
:1056280027F052FC5846C0B200098DF874001BF0F0
:105638000F008DF87500584680B2C00A10F00F00B0
:105648008DF87600584680B2800A10F001008DF877
:105658007900584680B2C00B8DF87A009DF8740026
:1056680002280ED00821200023F01FFA002807D0B6
:10567800DFF81835DFF800250821200023F031FA7B
:105688004CE20B983100C9B20844FAF7E5FDCDE9C0
:105698001A010836F61C0B983100C9B2405C8DF827
:1056A8007C00761CA888ADF86000A87800F0FF00A0
:1056B800ADF87200A87C8DF87000BDF82A000004CF
:1056C80003D501208DF8780002E000208DF87800DD
:1056D80001208DF87B00BDF82A0080B2000B8DF800
:1056E8008800BDF82A0080B2000A10F00F008DF87B
:1056F80089002022002110A827F0E6FB5046ADF8CB
:105708004800A879022804D1D5E90201ADF848007B
:1057180003E0D5E90201CDE9100108208DF84A001F
:10572800BDF82A00400403D500208DF84B0002E0A4
:1057380001208DF84B0003208DF84C0098F8980153
:1057480000280BD0B8F82C00504507D0A888B8F826
:105758002C10884202D102208DF84C0095F82200C6
:105768008DF84E00E87C8DF84F000C98007B0028DF
:1057780002D0012801D013E021E0BDF848005045CF
:105788000DD19DF82800132809D3B61C0B983100B9
:10579800C9B20844FAF722FDADF84800B61C0EE07D
:1057A8000821200023F081F9002807D0DFF8E03332
:1057B800DFF8C4230821200023F093F9AEE1DDE9E6
:1057C8001001002901D100282FD00821200023F042
:1057D8006CF9002856D09DF84E0006F091FA9DF815
:1057E80078100991C0B208909DF84E0007909DF975
:1057F8004F0006909DF876000590BDF86000049073
:10580800BDF872000390DDE910010290DDE9100196
:105818000191BDF848000090DFF87833DFF858238D
:105828000821200023F05DF92CE00821200023F056
:105838003CF9002826D09DF84E0006F061FA9DF844
:1058480078100991C0B208909DF84E0007909DF914
:105858004F0006909DF876000590BDF86000049012
:10586800BDF872000390DDE91A010290DDE91A0122
:105878000191BDF848000090C74BBF4A082120009D
:1058880023F02FF99DF82890B9EB06094846C0B2D5
:105898005E280CD30821200023F007F9002805D042
:1058A800BE4BB54A0821200023F01BF936E19DF8CC
:1058B800290000283FD04846C0B200283BD001A8A4
:1058C800B74991E88C0080E88C0000270B983100DC
:1058D800C9B208440E90012301AA4946C9B20E98DC
:1058E80027F086FD01281ADB0298002817D09DF8BA
:1058F8000400462812D10298FAF770FCC10702D5B5
:1059080001218DF87E10810702D501218DF88010C4
:10591800410702D501218DF87F100CE00BE008212A
:10592800200023F0C2F8002805D09E4B924A082197
:10593800200023F0D6F8A888B8F82C10884236D171
:10594800DDE91A23D8E908018B4201D182422ED021
:10595800D8E90801002902D1002800F0DF8040467C
:1059680008F096FC0221200023F09FF8002805D0BB
:105978008D4B814A0221200023F0B3F80221200038
:1059880023F093F8002811D0DDE91A010390DDE92E
:105998001A010291D8E908010190D8E9080100919B
:1059A800824B754A0221200023F09BF8B6E098F854
:1059B8007104002800F0B2800C2120000DF000FBDB
:1059C80000284BD008F2F2573878FF2802D03878F0
:1059D800401C3870DDE91A23D8E908018B4236D11A
:1059E800824234D17878FF2802D07878401C7870C9
:1059F8009DF87A00002830D0B878FF2802D0B8780F
:105A0800401CB8703879052827D238798DF80000FD
:105A1800200005F0DEFD010089B251451DD00100CE
:105A2800BDF8482089B2914217D0BDF848109DF8BA
:105A3800002007EB8202D1809DF84E109DF80020CF
:105A480007EB820211723979491C397105E0F8783F
:105A5800FF2802D0F878401CF8705FE09DF8290014
:105A6800002822D04846C0B200281ED0002332A207
:105A78008E21200027F04FF90700002F23D0302275
:105A880018A9380027F030FA17F1300078620E981C
:105A9800002818D0786A80F800904A46D2B20E9949
:105AA800786A401C27F020FA0DE0002322A230215A
:105AB800200027F030F90700002F04D0302218A961
:105AC800380027F011FA002F0CD10221200022F013
