:020000040800F2
:100000000010002075730308154F0308174F0308ED
:10001000194F03081B4F03081D4F030811930308D2
:100020000000000000000000000000003501010891
:100030001F4F030800000000F1000108916500084F
:100040001593030819930308214F03081D93030810
:100050002193030825930308299303082D9303088C
:1000600031930308274F0308359303083993030896
:100070003D9303084193030845930308ED4F03089C
:10008000F34F0308499303084D9303085193030862
:1000900055930308599303085D930308619303087C
:1000A000F94F030865930308699303086D930308E8
:1000B00071930308414F0308474F03084D4F03084E
:1000C000534F030875930308799303087D9303083E
:1000D0008193030885930308899303088D9303088C
:1000E0009193030895930308999303089D9303083C
:1000F000A1930308A5930308594F03085F4F030812
:10010000A9930308AD930308B1930308B5930308BB
:100110001B3D0008B9930308BD930308C19303086E
:10012000C5930308C9930308CD930308D19303082B
:10013000D5930308854F0308D9930308DD9303087B
:10014000E1930308E5930308654F0308E993030867
:10015000ED930308F1930308F5930308F99303085B
:10016000FD93030801940308059403080994030808
:100170000D940308119403081594030819940308B7
:100180001D9403082194030830B581B0040074D095
:10019000A0692168DFF8A42358B191421FBFDFF89E
:1001A000A0239142DFF89C33994216D04FF4A071FE
:1001B0000FE091421CBFDFF8882391420DD0DFF899
:1001C000880381421CBFDFF87C23914205D040F2B6
:1001D0004511DFF8780301F0D1FFD4F8880000283A
:1001E00039D1DFF86C030021C4F8940084F884103E
:1001F000DFF86003DFF86013C4F89C00C4F89810BF
:10020000DFF85803DFF85813C4F8A400C4F8A010AE
:10021000DFF85003DFF85013C4F8AC00C4F8A8109E
:10022000DFF84803DFF84813C4F8B400C4F8B0108E
:10023000D4F8C000DFF83C13DFF83C23C4F8B81052
:10024000C4F8BC2018B9DFF83413C4F8C010D4F8CF
:10025000C010204688472420C4F888002068016820
:10026000490849000160A06A10B1204600F082FEF2
:10027000204600F0A1FC012802D1012001B030BDD0
:100280002068416821F4904141602068816821F034
:100290002A0181602068016841F0010101600020AD
:1002A000C4F8900001F06CFF0546206801680A0759
:1002B00040F192802068C169880200F18D8001F0D0
:1002C0005FFF401BB0F1007F3FD2206801684A0702
:1002D000F0D5C169080704D42168C8690105E9D5CA
:1002E00046E0226808201062206850E8001F02469D
:1002F00021F4907142E800100028F5D1206800F147
:10030000080252E8002F00F10801DFF874020240F1
:1003100041E800200028F1D1E06E012809D12168D0
:1003200051E8001F226821F0100142E80010002867
:10033000F5D12020C4F88C000021E1660020606720
:100340000821C4F8901084F88400216851E8001F47
:10035000226821F0800142E800100028F5D1202019
:10036000C4F88800002184F88410032001B030BD57
:1003700021684FF400600862206850E8001F0246C0
:1003800021F4907142E800100028F5D1206800F1B6
:10039000080252E8002F00F10801DFF8E4010240F2
:1003A00041E800200028F1D1E06E012809D1216840
:1003B00051E8001F226821F0100142E800100028D7
:1003C000F5D12020C4F88C000021E1660020606790
:1003D0002021C4F89010B6E7206801684A0740F170
:1003E0009E802068C169480200F1998001F0C8FE32
:1003F000401BB0F1007F3FD2206801684A07F0D56A
:10040000C169080704D42168C8690105E9D554E029
:10041000226808201062206850E8001F024621F47C
:10042000907142E800100028F5D1206800F1080220
:1004300052E8002F00F10801DFF84401024041E8D2
:1004400000200028F1D1E06E012809D1216851E88F
:10045000001F226821F0100142E800100028F5D1A9
:100460002020C4F88C000021E1660020606708218C
:10047000C4F8901084F88400216851E8001F2268B5
:1004800021F4907142E800100028F5D1216801F1B3
:10049000080353E8001F20684908490000F10802DA
:1004A00042E800100028F1D12020C4F88C0000217F
:1004B00084F88410032001B030BD21684FF400603F
:1004C0000862206850E8001F024621F4907142E85B
:1004D00000100028F5D1206800F1080252E8002F32
:1004E00000F10801DFF89800024041E800200028F0
:1004F000F1D1E06E012809D1216851E8001F22687E
:1005000021F0100142E800100028F5D12020C4F8A5
:100510008C000021E166002060672021A8E72021EF
:10052000C4F888102020C4F88C000021E166002067
:10053000206784F8841001B030BD0000003801400D
:100540000044004000240046004800409471030825
:100550002B3901080B480108172A0108EB50010844
:10056000FB470108AB560108835101087F61010870
:10057000DB580108476601086B590108277100081C
:10058000FEFFFFEF10B5040001D1012010BD20686F
:10059000DFF84C1288421CBFDFF8482290420DD091
:1005A000DFF8441288421CBFDFF84022904205D099
:1005B00040F28321DFF8240201F0E0FD2420C4F89A
:1005C000880020680168490849000160226800200D
:1005D000002110602368596021688860D4F8C40045
:1005E00018B9DFF80C12C4F8C410D4F8C4102046AF
:1005F00088470020C4F890000021C4F88810C4F88F
:100600008C00E166206784F8841010BDD0F8883033
:10061000202B48D109B1130001D101207047016599
:10062000A0F85420A0F85620002181670022C0F8CD
:1006300090202121C0F88810426E8168B2F1005FDD
:1006400019D1B1F5805F04BF0169002919BFDFF836
:10065000A4118167DFF8A0218267036803F1080213
:1006600052E8002F083342F4000243E80021002939
:10067000F3D100207047B1F5805F04BF0169002904
:1006800007BFDFF878218267DFF87411816702689D
:1006900052E8002F036842F0800243E8002100295D
:1006A000F5D1002070470220704730B40346D3F8DC
:1006B0008C0020281DD109B1100002D1012030BCCE
:1006C00070470020D8661868DFF82041A0420CD09F
:1006D0004068040209D5186850E8004F054644F008
:1006E000806445E800400028F5D1184630BC00F091
:1006F00033BD022030BC704730B581B00446D4F819
:1007000088001346202865D100294FD010004DD015
:100710002165A4F85420A4F856200020C4F89000C5
:100720002121C4F88810E06F002842D0DFF86C1453
:100730000166E16FDFF868044866E16FDFF8640482
:100740008866E16F0020C866A068B0F5805F02BFD0
:10075000206900285300E06F90F850100A0617D562
:10076000406F00281CBF0068002819D09BB283602E
:10077000E16F206D4A6F1368D860E16F25684A6F9A
:10078000136805F128001861E06F01F0FFFC06E036
:1007900021689BB201F12802216D01F060FF40B198
:1007A0001020C4F890002021C4F88810012001B066
:1007B00030BD216840200862226802F1080151E83A
:1007C000001F083241F0800142E800100028F3D1F8
:1007D00001B030BD022001B030BD000094710308AB
:1007E000003801400044004000480040002400461A
:1007F0008773000891140008B11500083914000827
:10080000E7130008F0B581B004462068C16940F6DE
:100810000F05024612688368294210D18D0640F107
:10082000D180960602D4DD0040F1CC80616F0029B2
:1008300000F0B181204601B0BDE8F0400847DFF884
:1008400068532B4204BFDFF86463324200F0BA8081
:10085000CE0709D5D70507D501260662D4F8900042
:1008600040F00100C4F8900088070AD5DF0708D5DA
:10087000266802203062D4F8900040F00400C4F8EA
:10088000900048070AD5DF0708D5266804203062A3
:10089000D4F8900040F00200C4F8900008070CD58E
:1008A000960601D42B4208D0256808202862D4F887
:1008B000900040F00800C4F8900008050BD55601E0
:1008C00009D525684FF400602862D4F8900040F004
:1008D0002000C4F89000D4F89000002800F05B815C
:1008E000880607D5910601D4D80003D5616F09B1F8
:1008F00020468847D4F8900021688A68510602D4BF
:1009000010F0280F55D0206850E8001F024621F44F
:10091000907142E800100028F5D1206800F108022B
:1009200052E8002F00F10801DFF88402024041E89C
:1009300000200028F1D1E06E012809D1216851E89A
:10094000001F226821F0100142E800100028F5D1B4
:100950002020C4F88C000021E16661672168886866
:1009600041061FD5226802F1080353E8001F083230
:1009700021F0400142E800100028F3D1D4F88000B3
:1009800080B1DFF83012C166D4F8800001F00AFFB0
:10099000002800F00081D4F88000C16E01B0BDE8ED
:1009A000F0400847D4F8A420204601B0BDE8F0404C
:1009B0001047D4F8A410204688470020C4F89000BF
:1009C00001B0F0BDE56E012D40F0A880CD0640F1EC
:1009D000A580D60640F1A280102101622068B4F8FB
:1009E0005C10826850065DD5D4F880201068806C59
:1009F00080B2002847D0884245DAA4F85E00106D26
:100A0000812838D0216851E8001F226821F48071C4
:100A100042E800100028F5D1216801F1080353E8ED
:100A2000001F20684908490000F1080242E8001050
:100A30000028F1D1216801F1080353E8001F206864
:100A400000F1080221F0400142E800100028F1D135
:100A50002020C4F88C000021E166206850E8001FC7
:100A6000024621F0100142E800100028F5D1D4F828
:100A7000800001F047FE02202067B4F85C10B4F853
:100A80005E00091A42E0884204BF106D812840F0E0
:100A9000828002222267D4F8BC30204601B0BDE833
:100AA000F0401847B4F85E20B4F85E00891A0028B8
:100AB0001CBF88B200286ED0206850E8002F034683
:100AC00022F4907243E800200028F5D1206800F15C
:100AD000080353E8003F00F10802DFF8D4000340A8
:100AE00042E800300028F1D12020C4F88C00002218
:100AF000E2666267226852E8002F236822F0100243
:100B000043E800200028F5D102202067D4F8BC205B
:100B1000204601B089B2BDE8F040104708060AD56A
:100B2000150601D4180206D5A16FA1B3204601B065
:100B3000BDE8F0400847480617D5530615D520688C
:100B400050E8001F024621F0400142E80010002852
:100B5000F5D12020C4F888000022A267D4F89810AC
:100B6000204601B0BDE8F0400847080208D5530010
:100B700006D5D4F8B810204601B0BDE8F0400847CB
:100B8000C80148BF002A06D5D4F8B410204601B0E9
:100B9000BDE8F040084701B0F0BD0000A512000814
:100BA000E9120008F51200080100001020010004FD
:100BB000FEFFFFEFD9130008F0B581B0044662686C
:100BC0000025DFF8D436DFF890639A4204D340F66C
:100BD0002F41304601F0D2FAA068B0F1805F1CBF0F
:100BE0000028B0F5805F04D04FF44361304601F037
:100BF000C5FA2168DFF85C73E068B94207D10028C4
:100C000018BFB0F5005F1DD040F6334117E0B0F5D6
:100C1000805F18BF00280AD0B0F5405F18BFB0F55C
:100C2000005F04D040F63741304601F0A7FA206A51
:100C3000002818BFB0F5006F04D040F638413046A8
:100C400001F09CFA206900281CBFB0F5806FB0F558
:100C5000C06F04D040F63B41304601F08FFA606926
:100C600030F00C0100D120B940F63C41304601F093
:100C700085FAA069002818BFB0F5807F0AD0B0F5CA
:100C8000007F18BFB0F5407F04D040F63D413046AC
:100C900001F074FAE069002818BFB0F5004F04D0E5
:100CA00040F63E41304601F069FA606A002818BFFC
:100CB000012818D0022818BF032814D0042818BF10
:100CC000052810D0062818BF07280CD0082818BF00
:100CD000092808D00A2818BF0B2804D040F63F4145
:100CE000304601F04BFA2268DFF8B0051368A168BE
:100CF000034020690B4361690343E0690B430343ED
:100D000013605168E06821F4405101435160A169CA
:100D1000BA421CBF206A01439368DFF88405034090
:100D200019439160D16A606A090940EA0111D162F0
:100D3000DFF858158A4246D1DFF88C36186800F083
:100D40000300032853D8DFE800F0029D9B9F012099
:100D5000E169B1F5004F40F0C080102800F2EE804C
:100D6000DFE810F01100AF00EC00EC00B200EC0086
:100D7000EC00EC00B500EC00EC00EC00EC00EC004A
:100D8000EC00EC00B80002F005FC002800F0D78071
:100D9000636A0FF2C812616832F81320B0FBF2F0F8
:100DA0004B0803EB4003B3FBF1F04FF6F071A0F1F9
:100DB00010028A4280F0C2800140C0F34200014329
:100DC0002068C160BBE0DFF8C8148A4236D1DFF882
:100DD000F835186800F00C000C2808D8DFE800F09F
:100DE0003F0707075207070750070707540020204F
:100DF000BA42ADD1801E0E2800F2A080DFE800F0DC
:100E0000089E469E9E9E499E9E9E9E9E9E9E4C0035
:100E100002F09AFC002800F09280626A0FF23C1106
:100E200031F812306268B0FBF3F602EB42018E42F9
:100E3000C0F084801303B34231D27FE0DFF88C0529
:100E400082420ED1DFF880150B6813F0300306D014
:100E5000102B17D0202B13D0302B15D0C7E7002034
:100E6000C6E7BA42C3D1DFF86015886800F0030016
:100E70000328BCD8DFE800F003060408B7E7C7E79B
:100E80000420B5E70820B3E71020B1E7DFF84005FC
:100E9000C3E702F01DFBBDE74FF40040BDE750087B
:100EA000002110EB0620DFF82C7551EB16610023B2
:100EB00002F0D4FCA0F54076BE423FD22168C86063
:100EC0003DE002F0D3FB60E7DFF8040560E702F0E5
:100ED000FFFA5AE74FF400405AE710282ED8DFE80F
:100EE00000F009212D2D242D2D2D272D2D2D2D2DDB
:100EF0002D2D2A0002F04EFB08B3636A17A2616829
:100F000032F813204FF6F073B0FBF2F000EB510013
:100F1000B0FBF1F0A0F1100199420FD2226880B22B
:100F2000D0600CE002F0A2FBE6E7DFF8A404E4E7FF
:100F300002F0CEFAE0E74FF40040DEE701250120A1
:100F4000A4F86A00A4F8680000206067A06728463B
:100F500001B0F0BD002400469471030801000200B6
:100F60000400060008000A000C00100020004000E9
:100F70008000000110B50446A06AB0F5807F05D35B
:100F800040F60451DFF80C0301F0F8F894F828005B
:100F9000010712D5A06B002818BFB0F5004F05D08F
:100FA00040F60951DFF8EC0201F0E8F821684A68E0
:100FB000A06B22F4004202434A6094F82800C10763
:100FC00012D5E06A002818BFB0F5003F05D04FF4F5
:100FD0005161DFF8C00201F0D1F821684A68E06A87
:100FE00022F4003202434A6094F82800810712D5A7
:100FF000206B002818BFB0F5803F05D040F6175190
:10100000DFF8900201F0BAF821684A68206B22F4F8
:10101000803202434A6094F82800410712D5606B81
:10102000002818BFB0F5802F05D040F61E51DFF81C
:10103000640201F0A3F821684A68606B22F4802200
:1010400002434A6094F82800C10612D5E06B0028DC
:1010500018BFB0F5805F05D040F62551DFF83402A7
:1010600001F08CF821688A68E06B22F48052024318
:101070008A6094F82800810612D5206C002818BFD9
:10108000B0F5005F05D040F62D51DFF8080201F001
:1010900075F821688A68206C22F4005202438A6045
:1010A00094F8280042063ED52068DFF8E011884217
:1010B0001CBFDFF8DC21904205D040F63551DFF847
:1010C000D40101F05BF8606C002818BFB0F5801FF8
:1010D00005D040F63651DFF8BC0101F04FF8216829
:1010E0004A68606C22F4801202434A60616CB1F578
:1010F000801F18D1A06C002818BFB0F5001F0BD0BE
:10110000B0F5800F18BFB0F5C00F05D040F63B51C9
:10111000DFF8800101F032F821684A68A06C22F4FF
:10112000C00202434A6094F82800010612D5E06C20
:10113000002818BFB0F5002F05D040F64351DFF866
:10114000540101F01BF821684A68E06C22F4002287
:1011500002434A6010BD000003469965A3F85C2075
:10116000A3F85E20002058679868B0F5805F08D12A
:10117000186910B940F2FF1118E0FF20A3F86000D1
:1011800016E038B9186908B9FF210FE07F20A3F8ED
:1011900060000DE0B0F1805F07D1186908B97F21C8
:1011A00004E03F20A3F8600002E00021A3F86010F3
:1011B0000020C3F890002221C3F88C10D3F800C09F
:1011C0000CF1080151E8001F0CF1080C41F001017D
:1011D0004CE800100028F1D1586EB0F1005F2DD11D
:1011E000B3F86800824229D39968B1F5805F04BFE3
:1011F0001869002803D1DFF8601859670EE01869F4
:101200000FF2AD625A6748B1196851E8001F1A68B9
:1012100041F4807142E800100028F5D1196801F10D
:10122000080C5CE8001F186800F1080241F08051CA
:1012300042E800100028F1D1002070479868B0F50E
:10124000805F04BF186900280ED10FF281515967E1
:10125000186850E8001F024641F0200142E80010E3
:101260000028F5D10020704718690FF27D415967B9
:101270000028EDD0196851E8001F1A6841F49071F8
:1012800042E800100028F5D10020704700380140E6
:10129000004400409471030820BCBE00F369FFCFF6
:1012A000FFF4FF110146C86D096D812919D0002294
:1012B000A0F85620036803F1080252E8002F083313
:1012C00022F0800243E800210029F3D1016851E8AF
:1012D000002F0B4642F0400243E800210029F5D1DF
:1012E0007047D0F898100847C06DD0F894100847A0
:1012F0000000000030B4C16DD1F88800D1F88C2016
:101300000B689C6823061FD521281DD10020A1F859
:1013100056000B6853E8003F0C6823F0C00344E814
:1013200000300028F5D10B6803F1080555E8003FAF
:10133000086800F1080423F4000344E800300028A2
:10134000F1D12020C1F888000B68986843062FD59A
:10135000222A2DD10020A1F85E000A6852E8002F51
:101360000B6822F4907243E800200028F5D1086849
:1013700000F1080353E8003F00F10802DFF8840899
:10138000034042E800300028F1D1C86E012809D19D
:101390000A6852E8002F0B6822F0100243E8002090
:1013A0000028F5D12020C1F88C000022CA664A67C7
:1013B000D1F89020084642F01002C1F89020D1F8F0
:1013C000A41030BC08470000E00C02460048004072
:1013D0000024F40000FD0F00C06D0022A0F85E2084
:1013E000D0F8A4100847D0F88810212923D1B0F8EC
:1013F0005610A1B9026852E8002F036822F080025B
:1014000043E800210029F5D1016851E8002F0B467F
:1014100042F0400243E800210029F5D17047036DF6
:10142000026819789162016D4A1C0265B0F8561085
:101430004A1EA0F856207047D0F88810212925D1DF
:10144000B0F85610A1B9026852E8002F036822F0E4
:10145000800243E800210029F5D1016851E8002FFE
:101460000B4642F0400243E800210029F5D17047C5
:10147000036D02681988C1F308019162016D8A1C2D
:101480000265B0F856104A1EA0F8562070470000BA
:101490000346D3F88800212800D0704730B4B3F851
:1014A0006A00002800F0828010F0030100F015802F
:1014B000B3F85620002A61D01A68D46925060AD5E7
:1014C0001C6D257895621A6D541C1C65B3F8562066
:1014D000541EA3F85640491EEAD1800800F06680E9
:1014E000B3F85610002949D01968CA6914060BD5FB
:1014F0001A6D14788C62196D4A1C1A65B3F856106F
:10150000B1F10102A3F85620B3F85610B1B319682F
:10151000CA6914060AD51A6D14788C62196D4A1CB2
:101520001A65B3F856104A1EA3F85620B3F85610A1
:1015300021B31968CA6914060AD51A6D14788C6229
:10154000196D4A1C1A65B3F856104A1EA3F85620A6
:10155000B3F8561091B11968CA6914060AD51A6D04
:1015600014788C62196D4A1C1A65B3F856104A1E1D
:10157000A3F85620401EB3D130BC7047196801F162
:10158000080454E8001F186800F1080221F4000163
:1015900042E800100028F1D1186850E8001F024608
:1015A00041F0400142E800100028F5D130BC7047FE
:1015B0000346D3F88800212800D0704730B4B3F830
:1015C0006A00002800F08E8010F0030100F0178000
:1015D000B3F85620002A6DD01A68D46925060CD5B8
:1015E0001C6D2588C5F3080595621A6D941C1C6551
:1015F000B3F85620541EA3F85640491EE8D180087F
:1016000000F07080B3F85610002953D01968CA69E9
:1016100014060DD51A6D1488C4F308048C62196D74
:101620008A1C1A65B3F85610B1F10102A3F85620CE
:10163000B3F8561000293DD01968CA6914060DD5B3
:101640001A6D1488C4F308048C62196D8A1C1A651B
:10165000B3F85610B1F10102A3F85620B3F85610B2
:1016600041B31968CA6914060CD51A6D1488C4F3FD
:1016700008048C62196D8A1C1A65B3F856104A1E4C
:10168000A3F85620B3F85610A1B11968CA69140618
:101690000CD51A6D1488C4F308048C62196D8A1C69
:1016A0001A65B3F856104A1EA3F85620401EA9D159
:1016B00030BC7047196801F1080454E8001F18682D
:1016C00000F1080221F4000142E800100028F1D1E5
:1016D000186850E8001F024641F0400142E800103F
:1016E0000028F5D130BC704710B481B00168D0F843
:1016F0008C20222A63D14A6AB0F86010836D0A40B8
:101700001A70816D4A1C8265B0F85E104A1EA0F8FE
:101710005E20B0F85E10002955D1026852E8002F13
:10172000036822F4907243E800210029F5D1026891
:1017300002F1080454E8002F01685208520001F138
:10174000080343E800210029F1D12021C0F88C10C2
:1017500000224267002101670168DFF8AC24914252
:101760000CD049680A0209D5016851E8002F0B46E0
:1017700022F0806243E800210029F5D1C16E0129E1
:1017800018D10022C266016851E8002F0B4622F0F2
:10179000100243E800210029F5D10168CA69D30687
:1017A00044BF10220A62B0F85C10D0F8BC2001B02F
:1017B00010BC1047D0F8A01001B010BC08478869D1
:1017C00040F00800886101B010BC704710B481B0CF
:1017D0000168D0F88C20222A63D14A6AB0F86010E0
:1017E000836D0A401A80816D8A1C8265B0F85E1094
:1017F0004A1EA0F85E20B0F85E10002955D102689C
:1018000052E8002F036822F4907243E80021002977
:10181000F5D1026802F1080454E8002F016852086B
:10182000520001F1080343E800210029F1D12021F1
:10183000C0F88C1000224267002101670168DFF8C0
:10184000C82391420CD049680A0209D5016851E8C1
:10185000002F0B4622F0806243E800210029F5D1D9
:10186000C16E012918D10022C266016851E8002F1B
:101870000B4622F0100243E800210029F5D101684F
:10188000CA69D30644BF10220A62B0F85C10D0F8CF
:10189000BC2001B010BC1047D0F8A01001B010BCA3
:1018A0000847886940F00800886101B010BC7047A3
:1018B0002DE9F04104462068B4F86080C66901460D
:1018C0000F688568D4F88C10222940F0BF80B4F8E6
:1018D0006800002800F09980B00640F196802168E9
:1018E000486AA16D08EA00000870A06D421CA2655C
:1018F000B4F85E00411EA4F85E102068C66916F0B8
:10190000070F2FD0F10709D5FA0507D5012101628C
:10191000D4F8900040F00100C4F89000B0070AD558
:10192000EA0708D5216802200862D4F8900040F048
:101930000400C4F8900070070AD5EA0708D52168AA
:1019400004200862D4F8900040F00200C4F890002F
:10195000D4F8900030B1D4F8A41020468847002075
:10196000C4F89000B4F85E000028B5D1216851E8B1
:10197000001F226821F4807142E800100028F5D190
:10198000206800F1080252E8002F00F108019D488C
:10199000024041E800200028F2D12020C4F88C0049
:1019A00000216167002020672068974988420CD099
:1019B0004068010209D5206850E8001F024621F066
:1019C000806142E800100028F5D1E06E012818D1AE
:1019D0000021E166206850E8001F024621F0100156
:1019E00042E800100028F5D12068C169CA0644BF4A
:1019F00010210162B4F85C10D4F8BC202046904756
:101A000003E0D4F8A01020468847B4F85E0008B37D
:101A1000B4F8681088421DDA226802F1080353E81E
:101A2000001F083221F0805142E800100028F3D155
:101A300076486067216851E8001F226841F0200164
:101A400042E800100028F5D1BDE8F081816941F03D
:101A500008018161BDE8F0815D1A00082DE9F041BF
:101A600004462068B4F86080C66901460F6885683E
:101A7000D4F88C10222940F0BF80B4F86800002808
:101A800000F09980B00640F196802168486AA16D07
:101A900008EA00000880A06D821CA265B4F85E0010
:101AA000411EA4F85E102068C66916F0070F2FD0FB
:101AB000F10709D5FA0507D501210162D4F8900094
:101AC00040F00100C4F89000B0070AD5EA0708D535
:101AD000216802200862D4F8900040F00400C4F8A5
:101AE000900070070AD5EA0708D52168042008622B
:101AF000D4F8900040F00200C4F89000D4F89000B0
:101B000030B1D4F8A410204688470020C4F89000D3
:101B1000B4F85E000028B5D1216851E8001F2268A2
:101B200021F4807142E800100028F5D1206800F10E
:101B3000080252E8002F00F108013248024041E853
:101B400000200028F2D12020C4F88C000021616719
:101B50000020206720682C4988420CD04068010290
:101B600009D5206850E8001F024621F0806142E854
:101B700000100028F5D1E06E012818D10021E1669F
:101B8000206850E8001F024621F0100142E80010D2
:101B90000028F5D12068C169CA0644BF102101623E
:101BA000B4F85C10D4F8BC202046904703E0D4F889
:101BB000A01020468847B4F85E0008B3B4F8681057
:101BC00088421DDA226802F1080353E8001F083238
:101BD00021F0805142E800100028F3D10C486067E2
:101BE000216851E8001F226841F0200142E80010FE
:101BF0000028F5D1BDE8F081816941F008018161DB
:101C0000BDE8F081FEFFFFEF00240046E916000862
:101C1000CD1700082DE9F04399B001F037FF01F02E
:101C200053FF402108A802F041F968460021002234
:101C3000002300241EC01EC0002002F081F94FF4D2
:101C4000803002F043F908B172B6FEE7DFF8DC44F9
:101C500002F0BAF90022D4F8EC1401204FF4807598
:101C600060F3C401C4F8EC144FF480310991812170
:101C70000B9110210A920D910222032110921191D1
:101C8000082232210720129213910890022200218B
:101C90000C95149215921692179108A800F09EFECA
:101CA00008B172B6FEE700220321029201914022A0
:101CB0003F20002104920090039105910622079194
:101CC00006920321684601F049FA08B172B6FEE7B0
:101CD000022002F019FB0F200020C04608B172B6A6
:101CE000FEE75C21684602F0E1F84FF400464FF44D
:101CF000802100961691684602F052FB08B172B638
:101D0000FEE7D4F88804DFF82874DFF8288440F070
:101D10000200C4F88804D4F888044FF4005900F095
:101D2000020000900098D4F8881441F00101C4F832
:101D30008814D4F8880400F0010000900098D4F8CA
:101D4000881441F00401C4F88814D4F8880400F021
:101D5000040000900098D4F8881441F01001C4F8F1
:101D60008814D4F8880400F0100000900099012035
:101D7000C7F848010021C7F84C11C7F850114FF4BB
:101D80000060C8F82800C7F8440107F5A271404672
:101D900002F026FEDFF8A00301218162C7F844119A
:101DA00007F5A27102F01CFE0120C8F82800C7F850
:101DB000440107F5A271404602F012FE4FF4804044
:101DC000C8F82800C7F8440107F5A271404602F0A0
:101DD00007FEC8F82890C7F8449107F5A27140465D
:101DE00002F0FEFDC8F82890C7F8449107F5A271EB
:101DF000404602F0F5FDC8F82890C7F8449107F571
:101E0000A271404602F0ECFDDFF8300380218162D0
:101E1000C7F8441107F5A27102F0E2FDD4F884047A
:101E20000022062140F00100C4F88404D4F88404A0
:101E300000F00100009000981D2002F0DCF91D2048
:101E400002F030FA002205211E2002F0D4F91E20F3
:101E500002F028FA002206211F2002F0CCF91F20F0
:101E600002F020FA00220521202002F0C4F92020EF
:101E700002F018FADFF8C80238600C204FF4E131A4
:101E8000002278617960BA60FA603A61BA61FE61F5
:101E90003A627A62BA623846FEF776F908B172B6EB
:101EA000FEE70021384602F0FCFF08B172B6FEE7FB
:101EB0000021384603F064F808B172B6FEE73846F0
:101EC00002F098FF08B172B6FEE7DFF87862C7F853
:101ED0006C6107F5B67003F0D3F808B172B6FEE78F
:101EE000002107F5B67003F0EBF808B172B6FEE713
:101EF00006F14000C7F8780107F5BC7003F0C0F8A0
:101F000008B172B6FEE7002107F5BC7003F0D8F8FF
:101F100008B172B6FEE768460021002200230026C1
:101F20004EC00EC0302101F0C1FF1F21DFF81802A2
:101F3000C7F8D010C7F8C8004FF08041C7F8D86084
:101F4000C7F8DC60C7F8E060C7F8E410C7F8E860DD
:101F5000C7F8EC5007F1C80003F0FAF808B172B600
:101F6000FEE70090039604960596694607F1C800BF
:101F700003F027FD08B172B6FEE707F1C80003F0D1
:101F8000F3FC08B172B6FEE74FF07C510E900D9154
:101F900008960C961295012207A907F1C80003F0D4
:101FA00025FA08B172B6FEE7DFF8A001C7F85801BC
:101FB0002021C7F85C1107F5AC7003F06BFD08B188
:101FC00072B6FEE703F0DEFD206820F4807020602A
:101FD000DFF87C01016821F00401016002684CF225
:101FE000503142F001020260DFF86801C7F8FC10CE
:101FF000C7F8F8004FF4FA61C7F80061C7F8041198
:10200000C7F80861C7F80C61C7F8106107F1F8005C
:1020100004F036F808B172B6FEE704F0C6FA04F030
:10202000DDFD002001F062FD04F0E4FAFEE710B5EA
:10203000494C4A4820600C2060614FF400404FF446
:10204000E1310022E0616160A260E2602261A26190
:1020500022626262A2622046FEF796F808B172B66A
:10206000FEE70021204602F01CFF08B172B6FEE731
:102070000021204602F084FF08B172B6FEE7204638
:1020800002F0B8FE08B172B6FEE710BD4FF0804313
:10209000334A30B5334C2360334D286881B0A0FB00
:1020A00002210020A060C90C491E61604FF0FF3181
:1020B0002061E160204603F0E3FF08B172B6FEE75D
:1020C000204601B0BDE8304004F0AEB870B42649F7
:1020D0000968264E264DA1FB0662520B521E531C68
:1020E000B1FBF3F34343A3FB0554630A5B1EB3F553
:1020F000803F0DD31F4BA1FB03321D4E520E521ECB
:10210000541CB1FBF4F14843A0FB06656B0A5B1E4F
:1021100010488262C362016841F00101016070BC35
:10212000704710480168486A70470000040802467A
:102130005CAC012000040242001002420000024296
:1021400000440040006002400078004600080C4255
:10215000000403400048014060B401200038014001
:1021600006BD37867CBC0120AC5400205917B7D17E
:10217000986E1283ABF1128372B6FEE772B6FEE779
:1021800001484068704700BF4854002000281CBF29
:10219000416F002953D090F8542003685B69012AED
:1021A00003D0022A46D1DA0344D590F85430012BEB
:1021B00039D190F84C20012A01D102207047012228
:1021C00080F84C20022380F8543002220A73002346
:1021D0008365426F0021116101684A6942F4BA4285
:1021E0004A61416E21B101684A6942F400724A6154
:1021F000016F21B101684A6942F400524A61436F9C
:1022000002681968090C09041160D0F874C04FF60F
:10221000FC71DFF83020DCF80030D0F800C00B4053
:102220001343CCF87C300068416941F00101416101
:102230000020704740218165002280F84C20012059
:1022400070470000000001F8F0B581B00446FFF7C8
:1022500097FF0546002C00F0FA802068DFF85477DD
:10226000DFF85467B8421CBFDFF8501788421BD014
:10227000DFF84C2790421CBFDFF84817884213D084
:10228000DFF8442790421CBFDFF8401788420BD08C
:10229000DFF83C2790421CBFDFF83817884203D094
:1022A000FB213046FFF76AFFE068002818BFB0F551
:1022B000806F0AD0B0F5007F11D0FC213046FFF7C7
:1022C0005DFFE068B0F5007F09D06068B0F5007F81
:1022D00005D0432803D3FF213046FFF74FFFA06806
:1022E000002818BFB0F5006F04D040F2011130464D
:1022F000FFF744FF2069002818BF082804D04FF4D6
:1023000081713046FFF73AFF6069002818BFB0F5C9
:10231000002F04D040F203113046FFF72FFFA069D1
:1023200000281CBF0128022804D04FF482713046D7
:10233000FFF724FFE06900281CBFB0F5803FB0F52F
:10234000003F04D040F205113046FFF717FF206A26
:10235000002818BFB0F5800F0AD0B0F5000F18BFE5
:10236000B0F5400F04D04FF483713046FFF706FFFD
:10237000206B00281CBFB0F1004FB0F1404F04D0DB
:1023800040F207113046FFF7F9FE606B20B14FF4C1
:1023900084713046FFF7F2FE2068B8421CBFDFF8B8
:1023A0001C16884217D0DFF8182690421CBFDFF8B1
:1023B000141688420FD0DFF8102690421CBFDFF8B9
:1023C0000C16884207D0DFF8082690421CBFDFF8C1
:1023D000041688421AD1606A08B1412804D340F239
:1023E0000F113046FFF7CAFEA06A08B1412804D396
:1023F0004FF488713046FFF7C1FEE06A30F04020AC
:1024000004D040F211113046FFF7B8FE002184F8E5
:102410004C1094F8540020B921666066A166E0660D
:102420002167022084F854002068416941F00601C8
:10243000416121684869C2070CD5FFF7A1FE401B26
:102440000628F6D31020A065032184F8541001203B
:1024500001B0F0BD4A69206A22F4430202434A6196
:102460006369E0692169A26903430B431A43236846
:10247000BB421CBFDFF84405834217D0DFF840554C
:10248000AB421CBFDFF83C0583420FD0DFF8385564
:10249000AB421CBFDFF83405834207D0DFF830556C
:1024A000AB421CBFDFF82C65B3420ED1A56AE06ACF
:1024B0006D1E2D05024305F07C7545EA0200626A37
:1024C000521E120102F47C720243186C00F080204C
:1024D00002431A642279A06802F03F021043226B83
:1024E0000243E068B0F5806F21D12068B8421CBF7C
:1024F000DFF8C814884217D0DFF8C43498421CBFF4
:10250000DFF8C01488420FD0DFF8BC3498421CBFFB
:10251000DFF8B814884207D0DFF8B43498421CBF03
:10252000DFF8B014884207D142F4806204E0B0F5CD
:10253000007F08BF42F400722168DFF89C044B6CF6
:1025400003401A434A6422680021002091642168F4
:10255000C867606B00212065A165012084F85400E4
:10256000002001B0F0BD70B50446FFF709FE054636
:10257000002C3BD02068DFF83C1488421CBFDFF8F9
:102580003C2490421DD0DFF8381488421CBFDFF88D
:102590003424904215D0DFF8301488421CBFDFF895
:1025A0002C2490420DD0DFF8281488421CBFDFF89D
:1025B0002424904205D040F25D11DFF8FC03FFF7C0
:1025C000DDFD20684169060B360341F006014161DB
:1025D00020684169C8070BD5FFF7D2FD401B0628CC
:1025E000F6D31020A065032184F85410012070BD9B
:1025F000216800200022086023685A61216808646D
:102600002068002142642268002091642168002231
:10261000C8642068002102652268D167706822685A
:102620000121503AD20902F01F02914088437060A4
:1026300021684FF4FE400022C860E06D0021226650
:102640006266A166E2662167626700B1E16500200B
:102650002065A16584F8540084F84C1070BDF0B575
:1026600081B004000E4617461D4648D015B1B5F599
:10267000803F05D340F21721DFF83C03FFF77EFDD2
:1026800094F84C00012808BF022039D0012084F8BA
:102690004C0094F8541001292CD1022084F85400E5
:1026A0000021A1652068816C65F30F0181642168B8
:1026B0004FF4FE40C8602268D66420680765206831
:1026C000416941F4BA414161606E20B120684169BD
:1026D00041F400714161206F20B12068416941F4EB
:1026E000005141612068416941F0010141610020D0
:1026F00001B0F0BD4020A065002184F84C100120FD
:1027000001B0F0BD30B581B00446FFF739FD054694
:1027100044B394F85400022802D02021A1651EE0A1
:102720002068416941F004014161052084F85400AA
:10273000206801698A0418D4FFF722FD401B06288F
:10274000F6D3A06D032140F01000A06584F854106A
:1027500094F85000010602D5616F01200873002033
:1027600084F84C00012001B030BD4169042241F0E1
:102770000201416184F8542021684FF4FE40012297
:10278000C86084F8542094F85000010605D5616FA4
:1027900001200873226800209064002084F84C0017
:1027A00001B030BD28B190F85410022903D0202286
:1027B000826501207047042180F854100068416947
:1027C00041F4005141F0040141610020704710B50F
:1027D00004462068010B0903C968A0F15002D20920
:1027E00002F01F02D140C90740F1BB8002695105C8
:1027F00009D54269510506D54FF48062C260A06DCB
:1028000040F00100A065206801690A0509D5416909
:102810000A0506D54FF40061C160A06D40F00200CA
:10282000A06520680169CA0409D54169CA0406D5B2
:102830004FF48051C160A06D40F00400A065206895
:1028400001694A0409D541694A0406D54FF480411B
:10285000C160A06D40F00800A065206801698A058C
:1028600009D541698A0506D54FF40071C160616ED2
:1028700009B120468847206801698A0430D541693A
:102880008A042DD54FF40051C16094F854000428F7
:102890001FD12068416921F40051416120684169DC
:1028A00041F002014161012084F8540094F8501075
:1028B0000A0604D5616F0873226800209064E16EF7
:1028C000002084F84C0000294BD02046BDE8104081
:1028D0000847052084F85400216F09B12046884735
:1028E00021680869C20523D54869C20520D594F836
:1028F000500002060CD5C86F002804BF886C002861
:102900000BD1012184F85410616F0120087304E099
:10291000886C10B9012184F8541021684FF440707C
:102920000022C860216E84F84C2009B120468847F7
:10293000A06DB0B12068416941F002014161012000
:1029400084F8540094F850100A0644BF616F08736D
:10295000A16E002084F84C0019B12046BDE810405B
:10296000084710BD30B581B004000D4608BF0120F6
:102970001DD0112D18BF102D04D040F26A510E4801
:10298000FFF7FCFB22680121100B503AD20902F03C
:102990001F0200039140EA0608D505F01105112D2C
:1029A00042680CBF114322EA01014160002001B0DE
:1029B00030BD0000500002405C6D0308D0000240B2
:1029C00050010240D001024050020240D0020240B9
:1029D00050030240D0030240C031E03C2DE9F047F3
:1029E00082B0040000F08B83206840B10009000130
:1029F00005D04FF4AB71DFF8880BFFF7BFFBDFF8B2
:102A0000CC7AD7F8F483D7F80064207808F00C0863
:102A100006F00306C10747D56068002818BFB0F567
:102A2000803F05D040F25F11DFF8540BFFF7A6FBA3
:102A3000B8F1080F05D0B8F10C0F08BF032E40F015
:102A40009D806068002800F05A83B8F1080F2BD1F0
:102A5000A068002818BFB0F5801F05D04FF4B771EB
:102A6000DFF81C0BFFF78AFBD7F8D813A06821F416
:102A70008811014341F48031C7F8D813D7F8D8231F
:102A80000120DFF8001B120D02F001029040B1FBA3
:102A9000F0F0DFF8341ADFF8E42A0860106800204C
:102AA000C046002840F02B83207881072AD5206972
:102AB000002818BFB0F5807F05D04FF4D671DFF83D
:102AC000C00AFFF75BFB6069202805D340F2AD1117
:102AD000DFF8AC0AFFF752FBB8F1000F05D0B8F1F0
:102AE0000C0F08BF022E40F08B802069002800F0F8
:102AF0000683D7F8E803616920F4F81040EA014042
:102B0000C7F8E8032078010740F12B81A06900286D
:102B10001CBFB0F1806FB0F1005F05D04FF4F771CA
:102B2000DFF85C0AFFF72AFBD7F86C0400264107A0
:102B30000CD4D7F86C04012640F00400C7F86C04EC
:102B4000D7F86C0400F00400009000993868C107C1
:102B500000F18680386840F001003860FFF710FB14
:102B600005463868C10700F17B80FFF709FB401B71
:102B70000328F6D3032002B0BDE8F087606838B3BD
:102B8000A068002818BFB0F5801F05D040F283115F
:102B9000DFF8EC09FFF7F2FAD7F8D8236068A168EC
:102BA00022F4881202430A43C7F8D823FFF7E8FA51
:102BB0004FEA0005D7F8D80381033FF575AFFFF75B
:102BC000DFFA401B6528F5D3032002B0BDE8F0878B
:102BD000D7F8D80320F48810C7F8D803FFF7D0FA45
:102BE0004FEA0005D7F8D80381037FF55DAFFFF703
:102BF000C7FA401B6528F5D3032002B0BDE8F08773
:102C000020690028D7F8D80314D040F48070C7F8A2
:102C1000D803FFF7B5FA0646D7F8D80341053FF5C4
:102C200068AFFFF7ADFA801B0328F5D3032002B08D
:102C3000BDE8F08720F48070C7F8D803FFF7A0FA4A
:102C40004FEA0006D7F8D80341057FF55BAFFFF7E1
:102C500097FA801B0328F5D3032002B0BDE8F08764
:102C6000D7F8C854A06900285ED040012CD5E0698F
:102C7000002818BFB0F1805F05D040F21A21DFF8BC
:102C80000009FFF77BFAE06905F08051884217D010
:102C9000280115D525F08065C7F8C854FFF770FAEC
:102CA0004FEA0009D7F8C804010109D5FFF768FA0F
:102CB000A0EB09001528F5D3032002B0BDE8F0878A
:102CC00025F08050E5690543A0690543C7F8C8545D
:102CD000FFF756FA4FEA0009D4F818A0D7F8C8044D
:102CE00010EA4A0F09D1FFF74BFAA0EB09001528AB
:102CF000F2D3032002B0BDE8F0878AF0105A25EA2B
:102D00000A05C7F8C854FFF73BFA0546D7F8C804C8
:102D100010EA4A0F1ED0FFF733FA401B1528F5D3EF
:102D2000032002B0BDE8F08725F01055C7F8C8545D
:102D3000FFF726FA4FEA0005D7F8C80410F0904FC5
:102D400008D0FFF71DFA401B1528F5D3032002B069
:102D5000BDE8F0872EB1D7F86C0420F00400C7F866
:102D60006C042078410740F1AC80E0680026002820
:102D700018BF01280AD081281CBF0528852805D046
:102D80004FF41F71DFF8F807FFF7F8F9D7F86C0474
:102D900041070CD4D7F86C04012640F00400C7F8B2
:102DA0006C04D7F86C0400F00400009000993868B7
:102DB000C10712D4386840F001003860FFF7E0F92D
:102DC00005463868C10708D4FFF7DAF9401B032825
:102DD000F7D3032002B0BDE8F087E06841F28935FF
:102DE000C0B3D7F8C81421F080010843C7F8C8045D
:102DF000FFF7C6F94FEA0009D7F8C804810709D4DC
:102E0000FFF7BEF9A0EB0900A842F5D3032002B0FA
:102E1000BDE8F087207B010640F10E80D7F8C8049A
:102E2000010547D4FFF7ACF9A0EB0900A842F5D3A0
:102E3000032002B0BDE8F087D7F8C804010539D5F2
:102E4000FFF79EF9A0EB0900A842F5D3032002B0DA
:102E5000BDE8F087D7F8C80420F08100C7F8C8049F
:102E6000D7F8C80420F00400C7F8C804FFF788F9B1
:102E70004FEA0009D7F8C804810709D5FFF780F9A0
:102E8000A0EB0900A842F5D3032002B0BDE8F0870B
:102E9000D7F8C80401060DD5D7F8C804010509D52F
:102EA000FFF76EF9A0EB0900A842F5D3032002B0AA
:102EB000BDE8F0872EB1D7F86C0420F00400C7F805
:102EC0006C04206A002800F0ED80012818BF022859
:102ED00009D040F2EB21DFF8A806FFF74FF9206A8E
:102EE000002800F0DF80206AB8F10C0F00F0DE80CF
:102EF000022840F0BA80606ADFF88486022818BF92
:102F0000032804D040F2F5214046FFF737F9A06AC4
:102F100008B1092804D340F2F6214046FFF72EF904
:102F2000E06A40F2FD11001F884204D340F2F7210D
:102F30004046FFF723F9206B08B1812804D34FF4F2
:102F40003E714046FFF71AF9606B08B1812804D33F
:102F500040F2F9214046FFF711F9A06B08B1812832
:102F600004D340F2FA214046FFF708F9D7F8D80316
:102F700020F08070C7F8D803FFF702F94FEA000687
:102F8000D7F8D853FFF7FCF8801B0328BFF4F2AD45
:102F9000A801F5D4616A032906D12D0DDFF8E405F7
:102FA00005F00105E84001E0DFF81805A26ADFF846
:102FB0007818B0FBF2F6DFF874088019884204D361
:102FC00040F21B314046FFF7D9F8DFF8640886422B
:102FD0002CBF0C220022D7F80034616ADFF85408B5
:102FE0000340A06A0B431A43401E42EA002242F407
:102FF0008022C7F80024E06A216B401E491E40EA87
:103000004120616B491E40EA0140A16B491E40EA24
:103010000160C7F80C04E06B88B1B0F5005F04D321
:103020004FF44E714046FFF7A9F8E06BC000C7F8B7
:103030001004D7F8000440F01000C7F80004D7F8D7
:10304000D80340F08070C7F8D803FFF799F804461A
:10305000D7F8D803810125D4FFF792F8001B032885
:10306000F6D3032002B0BDE8F087D7F8D80320F0EC
:103070008070C7F8D803FFF783F80446D7F8D80361
:10308000810108D5FFF77CF8001B0328F6D3032045
:1030900002B0BDE8F087D7F80014DFF8A0070140C0
:1030A000C7F80014002002B0BDE8F087012826D040
:1030B000D7F80004D7F80C14636A00F003029A42B0
:1030C00001BFC0F30220401CA26A904217D1E26AFD
:1030D000C1F30800401C904201BFC1F34620401CD0
:1030E000226B90420BD1626BC1F30640401C9042B0
:1030F00001BFC1F30660401CA16B884203D00120D0
:1031000002B0BDE8F087D7F81014E06BC1F3CC0132
:103110008842C7D0B0F5005F05D340F28331DFF8B5
:103120006004FFF72BF8D7F8000420F01000C7F870
:103130000004FFF725F88046FFF722F8B0EB0800FF
:10314000FAD0E16B3846C900C0F81014D0F800146A
:1031500041F01001C0F80014A4E700002DE9F0438D
:1031600081B004000D4600F04481206810F03F0F4C
:1031700002D08009800105D040F2D531DFF800048B
:10318000FEF7FCFF002D18BF012D21D0022D18BF26
:10319000032D1DD0042D18BF052D19D0062D18BFE5
:1031A000072D15D0082D18BF092D11D00A2D18BFD5
:1031B0000B2D0DD00C2D18BF0D2D09D00E2D18BFC5
:1031C0000F2D05D040F2D631DFF8B403FEF7D6FF5D
:1031D000DFF86C86D8F8000000F00F00A8420DD28E
:1031E000D8F80010090945EA0111C8F80010D8F80C
:1031F000000000F00F00A84240F0FB802078B04FA4
:10320000810624D5E069002818BF102805D040F2B7
:10321000EF31DFF86C03FEF7B1FFA069002818BF9B
:1032200004280AD005281CBF0628072805D04FF41B
:103230007C71DFF84C03FEF7A1FFD7F80022A069EC
:10324000E16922F0170202430A43C7F800222078FE
:10325000C1075DD56068F0B93868400540F1C980A4
:10326000F969606841F28939890840EA8101F961A8
:10327000FEF786FF06466068F96901F00C01B1EBC4
:10328000800F30D0FEF77CFF801B4845F3D303202E
:1032900001B0BDE8F083022808BF38681DD00328BC
:1032A00008BF386809D04FF47E71DFF8D402FEF70A
:1032B00065FF3868616803290DD1800140F199806C
:1032C000F96901F00C010C29CAD0B96A012060F338
:1032D0001551B962C4E70229BFD18003C0D40120CF
:1032E00001B0BDE8F083032812D1B86A20F4801041
:1032F000B862FEF745FF0646B86A410208D4FEF7F9
:103300003FFF801B0B28F7D3032001B0BDE8F083FB
:103310003E6A217800208A0713D5A068002818BFCC
:10332000042809D005281CBF0628072804D040F22D
:1033300055419348FEF722FFF608F000A6680643C1
:10334000012021784A0713D5E068002818BF4028DB
:1033500009D050281CBF6028702804D040F2614179
:103360008748FEF70BFF26F07000E6680643012051
:1033700021780A0714D52069002818BF402809D0F1
:1033800050281CBF6028702804D040F26C417C4853
:10339000FEF7F4FE206926F4E06646EA001600E037
:1033A00000B13E622078C10610D56069002818BFC0
:1033B000402809D050281CBF6028702804D040F253
:1033C0007D416F48FEF7DAFE60697862D8F8001038
:1033D00001F00F018D4210D2D8F80000000945EA33
:1033E0000010C8F80000D8F8001001F00F01A94241
:1033F00003D0012001B0BDE8F083F86910F00C00A3
:1034000008BF30484BD0082806D139685D48090DFF
:1034100001F00101C84042E0786B796BC1F308010B
:10342000491C00EE101AB96AB8EE400AC1F3022234
:10343000521C00EE902AF8EE600ACA0643BFBA6B2F
:10344000C2F3CC0201EE102A9FED4F1A01F00301E6
:10345000B8EE411A02290CD003290DD13968494A26
:10346000090D01F00101CA4001EE902AF8EE611A3F
:1034700004E0DFED461A01E0DFED431AC1EEA00AD9
:10348000DFED431A01EE210A20EE800ABCEEC00AED
:10349000C0F3066010EE101A401CB1FBF0F03A6A5F
:1034A000DFF8A013084B02F00702895C01B0C840A6
:1034B000186032480068BDE8F04300F0C5BC000069
:1034C000000C02460024F400AC54002028080246F8
:1034D000DFF87413C86910F00C0002D1DFF86C0338
:1034E0007047082806D109682648090D01F0010136
:1034F000C8407047486B4A6BC2F30802521C00EE8A
:10350000102A8A6AB8EE400AC2F302235B1C00EE5E
:10351000903AF8EE600AD30643BF8B6BC3F3CC033B
:1035200001EE103A9FED181A02F00302B8EE411AAC
:10353000022A0CD0032A0DD10968124A090D01F0A4
:103540000101CA4001EE902AF8EE611A04E0DFEDB5
:103550000F1A01E0DFED0C1AC1EEA00ADFED0C1A24
:1035600001EE210A20EE800ABCEEC00AC0F306601C
:1035700010EE101A401CB1FBF0F0704750540020C0
:10358000B46F03080048E801000000000024744BF9
:1035900000000039DFF8B012C86910F00C0008BF55
:1035A000DFF8A8024DD0082807D10A68DFF8A0028A
:1035B000120D02F00102D04043E0486B4A6BC2F3A7
:1035C0000802521C00EE102A8A6AB8EE400AC2F3C2
:1035D00002235B1C00EE903AF8EE600AD30643BF6C
:1035E0008B6BC3F3CC0301EE103A9FED561A02F039
:1035F0000302B8EE411A022A0DD0032A0ED10A683E
:10360000DFF84C32120D02F00102D34001EE903A85
:10361000F8EE611A04E0DFED821A01E0DFED491AED
:10362000C1EEA00ADFED7F1A01EE210A20EE800A2A
:10363000BCEEC00AC0F3066010EE102A401CB2FBBC
:10364000F0F0D1F820C0DFF8FC31DFF808220CF0F0
:10365000070C13F80C30D84010601068096ADFF8C6
:10366000F821C1F30211525CD0407047DFF8D81145
:10367000C86910F00C0008BFDFF8D0014DD0082851
:1036800007D10A68DFF8C801120D02F00102D0402C
:1036900043E0486B4A6BC2F30802521C00EE102A4A
:1036A0008A6AB8EE400AC2F302235B1C00EE903A2D
:1036B000F8EE600AD30643BF8B6BC3F3CC0301EE75
:1036C000103A9FED201A02F00302B8EE411A022AC6
:1036D0000DD0032A0ED10A68DFF87431120D02F002
:1036E0000102D34001EE903AF8EE611A04E0DFEDFA
:1036F0004C1A01E0DFED131AC1EEA00ADFED491A02
:1037000001EE210A20EE800ABCEEC00AC0F306607A
:1037100010EE102A401CB2FBF0F0D1F820C0DFF808
:103720002431DFF830210CF0070C13F80C30D840AE
:1037300010601068096ADFF82021C1F30221525C91
:10374000D040704700000000DFF8FC10C86910F09E
:103750000C0008BFDFF8F4004DD0082807D10A6834
:10376000DFF8EC00120D02F00102D04043E0486B9C
:103770004A6BC2F30802521C00EE102A8A6AB8EEA5
:10378000400AC2F302235B1C00EE903AF8EE600A96
:10379000D30643BF8B6BC3F3CC0301EE103A9FED0E
:1037A000261A02F00302B8EE411A022A0DD0032AAB
:1037B0000ED10A68DFF89830120D02F00102D340F2
:1037C00001EE903AF8EE611A04E0DFED151A01E01F
:1037D000DFED191AC1EEA00ADFED121A01EE210A7F
:1037E00020EE800ABCEEC00AC0F3066010EE102A7C
:1037F000401CB2FBF0F0D1F820C0DFF84830DFF811
:1038000054200CF0070C13F80C30D84010601068EE
:10381000496ADFF84420C1F30211525CD04070477E
:103820000024744B00000039011BB70000F7C2FFF1
:1038300001127A00E0F8FFFF00000000FCFFF8FF33
:1038400000200240D46F0008000C02460024F4005F
:103850000048E801AC540020F8910308BBBBE1B17B
:10386000B2F5803F80F07E80022A1ED98C46B1FBE3
:10387000F2F102FB11C31B0443EA1043B3FBF2FC59
:1038800002FB1C3380B240EA0343B3FBF2F002FBBD
:10389000103240EA0C4000237047022A05D98446C2
:1038A000B0FBF2F002FB10C270474AB105D100F044
:1038B000010249085FEA3000704700220023704788
:1038C00003F008BB0B00020000210020704790426B
:1038D00071EB030CF6D3B3F5803F2FD2F0B5B3FAFA
:1038E00083F7B1FA81F4A7F10F0E3D1B5340CEF1DF
:1038F000200602FA0EF2F3415340B5F10F0746D805
:103900000F3C2C444140C4F12006A040F14141400D
:10391000B1FBF3F603FB1611A2FB0645001BA94100
:1039200002D2761E8018594180EA010221FA0EF374
:1039300062FA0EF200215A403046F0BD30B4B1FBBD
:10394000F3FC03FB1C11A2FB0C45001BA94103D295
:10395000ACF1010C8018594130BC02460B46604660
:1039600000217047B2F1807F65D3F0B5B2FA82F7DB
:10397000B1FA81F4C7F10F063D1B22FA06F307F1F5
:10398000110EF24120355A40B5F10F07B8D9414028
:10399000C4F12006A040F1414140B1FBF3FC03FB20
:1039A0001C11A2FB0C45001BA94103D2BCF1010C68
:1039B000801859410F2F12D30F3FC90341EA5041DC
:1039C000B1FBF3F603FB1611A2FB0645D4EBC030A6
:1039D000A94102D2761E8018594146EACC3C07B371
:1039E0004140C7F12006B840F1414140B1FBF3F638
:1039F00003FB1611A2FB0645001BA94102D2761E4D
:103A00008018594180EA010221FA0EF3C7F120041F
:103A100062FA0EF20CFA07F05A402CFA04F1304325
:103A2000F0BD80EA010221FA0EF3002162FA0EF2E3
:103A300060465A40F0BD8C46B1FBF2F102FB11C367
:103A40001B0243EA1063B3FBF2FC02FB1C331B02B4
:103A50004CEA002043EA1063B3FBF2FC02FB1C3388
:103A60001B024CEA002043EA1063B3FBF2FC02FBAA
:103A70001C331B024CEA002043EA1063B3FBF2FC48
:103A800002FB1C324CEA00200023704700B581B0D5
:103A9000DFF83000016841F480710160032000F01C
:103AA0008FFB03F027FA042000F02EFC0F200020EB
:103AB000C04610B1012001B000BD03F08FFA002014
:103AC00001B000BD0020024000B581B0002200928C
:103AD0006946002003F0E4FC002812BF0C20009887
:103AE000807B00F053FF01B000BD000030B581B015
:103AF0000020C046C046C8480168C84C41F40001D7
:103B0000016003F0E3FCC64800F065FAFEF78FFAA7
:103B1000D4E9000104F012F804F02AF804F050F897
:103B200004F092F804F1240004F0BCF808B1FEF7A8
:103B300023FB00BFC5A20021012002F0A1FEA0606E
:103B4000B84D05F1F80200210FF2811002F07FFD5F
:103B500000281CBFA068002807D105F1D00202216F
:103B6000012003F0CBFFFEF707FB02F0ADF800BF2A
:103B7000BAA20021012002F083FE206105F58E72B9
:103B800000210FF2351002F062FDE06000281CBF3A
:103B90002069002807D105F158020221012003F015
:103BA000ADFFFEF7E9FA00BFB0A20021012002F04C
:103BB00067FE606105F5A07200210FF2251002F08A
:103BC00046FD00281CBF6069002807D105F180026E
:103BD0000221012003F092FFFEF7CEFA012101201D
:103BE00004F0A4FA0021022004F0A0FA0021002031
:103BF00004F09CFA04F024FB04F056FBA3A002F0AE
:103C00009DFDE06130B92A460221012003F076FFD4
:103C1000FEF7B2FAA1A002F091FD206238B905F1D9
:103C20002C020221012003F069FFFEF7A5FA00BF74
:103C300092A20021012002F023FEA06105F5B272DC
:103C400000210FF2B10002F002FD00281CBFA069A4
:103C5000002807D105F1A8020221012003F04EFF40
:103C6000FEF78AFA704909884FF6FF72914201D037
:103C7000080001D16D4803E0C9086D4800EB4130F0
:103C800004F070FC08B1FEF777FA05F0F3FC0121AF
:103C9000022004F04BFA002000900FF2990300225A
:103CA000002104F1340003F019FC0020C046C04696
:103CB000002001B030BD000010B5584C20694FF015
:103CC000FF3102F03DFE02F007F9F7E710B5534C63
:103CD000A0684FF0FF3102F033FE04F00DFAF7E771
:103CE00010B54E4C60694FF0FF3102F029FE06F02E
:103CF000B1FEF7E710B5494CA0694FF0FF3102F073
:103D00001FFE07F011F8F7E700B581B007F098F84B
:103D100001B05DF804EB07F021B9464900B5086829
:103D200081B002F04AFE01B043485DF804EB02F0B6
:103D30005DBB000070473949886902F03EBE3749D3
:103D4000086902F03ABE0FF21D0101600FF21D0278
:103D50000FF221034260836070473049886802F0A7
:103D60002CBE0000890007F0E1B90000800007F0D8
:103D7000FDB8000007F092B92849486902F01DBE5D
:103D800004F044BB30B581B02C4C002500952C4B81
:103D900001226421204603F0A1FB6421204603F0A8
:103DA00055FC0A202749087001B030BD70471B4AF6
:103DB00000B5D06981B04FF0FF3102F0FDFC401E2C
:103DC0008041C043C00F01B000BD144900B5C869AF
:103DD00081B002F026FD401E8041C043C00F01B0FB
:103DE00000BD0E4A00B5106A81B04FF0FF3102F0FD
:103DF000E3FC401E8041C043C00F01B000BD074935
:103E000000B5086A81B002F00CFD401E8041C0433D
:103E1000C00F01B000BD0000F40C02467450002039
:103E20004000003020350308A007FA0B00C01F082F
:103E300000C0FF07A4C1012054AD012030C2012001
:103E4000093D00084854002000207047CC8F03082B
:103E5000000000000000000000000000FC8A0308D1
:103E6000000000000000000000000000408E030879
:103E7000000000000000000000000000DC8F0308CC
:103E8000000000000000000000000000EC8F0308AC
:103E9000000000000000000000000000FC8F03088C
:103EA000000000000000000000000000002207F0F9
:103EB00063B98268521C8260426832B10268531C46
:103EC000036011704168491E4160704730B5044677
:103ED00081B0B4F5803F18BF002C05D04FF480713D
:103EE000DFF8D000FEF74AF9DFF8CC20106B00F4C1
:103EF0008030A0421ED01068DFF8C05020F480301F
:103F00000443146029683220DFF8B4404143A1FB28
:103F10000443D80C401C014601E071B1491E1368EE
:103F20001C04FAD549B101E038B1401E116B0B04F5
:103F3000FAD510B1002001B030BD032001B030BD72
:103F400030B581B0040018BF022C05D040F24311F7
:103F5000DFF86000FEF712F9DFF8605029683220C0
:103F6000DFF85C304143A1FB0332DFF85810D00C7E
:103F7000401C002C0A680CD122F002020A604A6B35
:103F800093070FD5002818BF401EF8D1032001B0B9
:103F900030BD42F002020A6001E038B1401E4A6BB7
:103FA0009307FAD510B1002001B030BD032001B055
:103FB00030BD00008C6903080C080246AC54002098
:103FC00006BD378608080246DFF87C01016841F02B
:103FD00001010160704730B5044681B0012C18BF63
:103FE000B4F1011F00F09680022C1CBFDFF86001C5
:103FF000844200F08F80DFF85C118C421CBFDFF838
:104000005801844200F08680082C1CBFDFF84C0168
:10401000844200F07F80DFF848118C421CBFDFF83B
:104020004401844276D0202C1CBFDFF83C0184423E
:1040300070D0DFF838118C4218BF402C6AD0DFF8FE
:10404000300184421CBFDFF82C118C4262D0DFF8B3
:10405000280184421CBFDFF824118C425AD0DFF8BB
:10406000200184421CBF40F201118C4252D0DFF883
:10407000140184421CBF40F202218C424AD0DFF876
:10408000080184421CBFDFF804118C4242D0DFF8E3
:10409000000184421CBF40F608018C423AD0DFF890
:1040A000F40084421CBFDFF8F0108C4232D0DFF8FD
:1040B000EC0084421CBF42F220018C422AD0DFF87F
:1040C000E00084421CBFDFF8DC108C4222D044F2B6
:1040D000400084421CBFDFF8D0108C421AD0DFF8B9
:1040E000CC0084421CBFDFF8C8108C4212D0DFF82D
:1040F000C40084421CBFDFF8C0108C420AD0042CDC
:104100001CBF102C802C05D04FF4F071DFF83C0060
:10411000FEF734F8DFF8A420506804F0FF0103250F
:10412000884340EA1420506091FAA1F09368B0FAF5
:1041300080F040008540AB4343EA1443936013682A
:104140001943116001B030BD280802463C6F0308D6
:1041500002000400040010000400200008004000D9
:104160001000000110000002200000042000000CDC
:1041700040000010400000308000004080000080BF
:10418000800000C0010101000202040004041000CC
:104190000404200008084000101000011010000264
:1041A000202000042020000C40400010404000303F
:1041B0008080004080800080808000C0140802461B
:1041C00010B50446072C18BF062C09D0052C1CBFBF
:1041D000042C032C04D0B721DFF8A001FDF7CEFF9B
:1041E000DFF89C01016840F2FA5264F30A2162F39D
:1041F0001F41016010BD2DE9F043814681B00E469C
:10420000DFF87C01016814464FF00108C1F3022772
:10421000032F01D234B90AE007F1FD0208FA02F2D5
:10422000944204D3D121DFF85401FDF7A7FFC7F171
:104230000705032D06D8C7F1070008FA00F08642EB
:1042400002D206E00F2E04D9D221DFF83001FDF7AB
:1042500095FF052D2FBF0F20C7F1070008FA00F0CA
:10426000401E391D072934BF0027FF1E0640BE40EF
:1042700008FA07F77F1E3C40264330015FEA090138
:1042800005D4DFF80021505401B0BDE8F083DFF819
:10429000F83001F00F01194401F8040C01B0BDE839
:1042A000F0830000010004D5E321DFF8D000FDF722
:1042B00065BF012200F01F018A40DFF8D0304009BD
:1042C00043F820207047010004D5F321DFF8AC004B
:1042D000FDF754BF012200F01F018A40DFF8B03023
:1042E000400943F82020BFF34F8FBFF36F8F704713
:1042F000010008D4012200F01F018A40DFF8983045
:10430000400943F82020704710B50446012C20D006
:10431000022C26D0042C0CD08CB140F29D111748F1
:10432000FDF72CFF042C27D8DFE804F009131B2627
:1043300003001848016841F00401016010BD1548F0
:10434000016821F0040101601448026822F440026F
:1043500011E01048016821F0040101600F480121BB
:1043600006E00C48016821F0040101600B480221BD
:10437000026861F39752026010BD000018680308DC
:104380000CED00E000E400E018ED00E000E100E0EA
:1043900080E100E010E000E000E200E0E00C024616
:1043A0002DE9F04381B006463068810202D0800DCD
:1043B000800504D07821DFF80C06FDF7DFFE3078A9
:1043C000DFF8EC75C10715D57068002818BF012803
:1043D00008D0022818BF032804D07E21DFF8E405A6
:1043E000FDF7CCFED7F8B8147068890840EA81015F
:1043F000C7F8B8143178880715D5B068002818BFF9
:10440000042808D0082818BF0C2804D08921DFF818
:10441000B405FDF7B3FED7F8B814B06821F00C016D
:104420000143C7F8B8143168C80315D5F0680028EF
:1044300018BF102808D0202818BF302804D0952194
:10444000DFF88005FDF79AFED7F8B814F06821F080
:1044500030010143C7F8B8143178480714D53069E2
:1044600000281CBFB0F5806FB0F5006F04D0A1210B
:10447000DFF85005FDF782FED7F8B814306921F453
:1044800040610143C7F8B8143168880314D57069D6
:1044900000281CBFB0F5805FB0F5005F04D0AD21EF
:1044A000DFF82005FDF76AFED7F8B814706921F42B
:1044B00040510143C7F8B8143168480314D5B069B6
:1044C00000281CBFB0F5804FB0F5004F04D0B921D3
:1044D000DFF8F004FDF752FED7F8B814B06921F404
:1044E00040410143C7F8B8143168080314D5F06996
:1044F00000281CBFB0F5803FB0F5003F04D0C521B7
:10450000DFF8C004FDF73AFED7F8B814F06921F4DB
:1045100040310143C7F8B8143178080718D5306A1C
:10452000002818BFB0F5802F0AD0B0F5002F18BFB3
:10453000B0F5402F04D0D121DFF88804FDF71EFE2E
:10454000D7F8B814306A21F440210143C7F8B814F1
:104550003178C80614D5706A00281CBFB0F5801FDA
:10456000B0F5001F04D0DD21DFF85804FDF706FE8A
:10457000D7F8B814706A21F440110143C7F8B81491
:104580003178880618D5B06A002818BFB0F5800FBA
:104590000AD0B0F5000F18BFB0F5400F04D0E821E5
:1045A000DFF82004FDF7EAFDD7F8B814B06A21F46B
:1045B00040010143C7F8B8143178480612D5F06AB3
:1045C000002818BFB0F1004F04D0F221DFF8F40347
:1045D000FDF7D4FDD7F8B814F06A21F0004101438B
:1045E000C7F8B8143178080625D5306B002818BFF5
:1045F000202809D060281CBF4028802804D0FD2135
:10460000DFF8C003FDF7BAFDD7F8BC14306B21F01A
:10461000E0010143C7F8BC14306B20B9D7F800049F
:1046200040F4803005E0202805D1D7F8000440F49C
:104630000030C7F800043068C10523D5706B00282E
:1046400018BFB0F5805F0BD0B0F5005F18BFB0F5B4
:10465000405F05D040F21711DFF86803FDF78EFDCB
:10466000D7F8BC14706B21F440510143C7F8BC1457
:10467000716BB1F5405F05D1D7F8000440F400300C
:10468000C7F800043068C10226D5B06B002818BFF7
:10469000B0F1805F0BD0B0F1005F18BFB0F1405FA8
:1046A00005D04FF49471DFF81C03FDF767FDD7F8D0
:1046B000BC14B06B21F040510143C7F8BC14B06B7F
:1046C000B0F1805F18BFB0F1405F05D1D7F80004AA
:1046D00040F48030C7F800043068810223D5F06BC5
:1046E000002818BFB0F1804F05D040F23F11DFF82D
:1046F000D402FDF743FDD7F8BC14F06B21F08041E4
:104700000143C7F8BC14F06B20B9D7F8000440F49B
:10471000803006E0B0F1804F05D1D7F8000440F4B6
:104720000030C7F800043068810516D5306C0028C9
:1047300018BF012809D0022818BF032805D04FF45C
:10474000AC71DFF88002FDF719FDD7F8C014306CAA
:10475000890840EA8101C7F8C0143168480513D5BB
:10476000706C00281CBF0828102805D04FF4B171C8
:10477000DFF85002FDF702FDD7F8C014706C21F08D
:1047800018010143C7F8C0143168080513D5B06C8F
:1047900000281CBF4028802805D040F26D11DFF8AA
:1047A0002402FDF7EBFCD7F8C014B06C21F0C00177
:1047B0000143C7F8C0143168C80419D5F06C00284B
:1047C00018BFB0F5806F0BD0B0F5006F18BFB0F513
:1047D000406F05D040F27711DFF8E801FDF7CEFC1D
:1047E000D7F8C014F06C21F440610143C7F8C0143D
:1047F0003168880425D5306D002818BFB0F5805F7A
:104800000DD0B0F5005F1CBFB0F5405FB0F5804F34
:1048100005D040F28111DFF8AC01FDF7AFFCD7F80D
:10482000C014306D21F4E0410143C7F8C014316D6C
:10483000B1F5005F05D1D7F8000440F48030C7F827
:1048400000043068410477D5706D0024002818BF3B
:10485000B0F5807F0BD0B0F5007F18BFB0F5407F7A
:1048600005D040F29311DFF85C01FDF787FCD7F823
:10487000C854706D05F4407585425DD0D7F86C144E
:1048800048070CD4D7F86C14012441F00401C7F890
:104890006C14D7F86C0400F004000090009938689C
:1048A00040F001003860FDF76BFC80463868C107B6
:1048B00009D4FDF765FCA0EB08000328F6D303201C
:1048C00001B0BDE8F083D7F8C80420F440707DB192
:1048D000D7F8D014D7F8C82442F48032C7F8C824D7
:1048E000D7F8C82422F48032C7F8C824C7F8D014F7
:1048F000716DDFF8E0500143C7F8C814054014D0CB
:10490000FDF73EFC4FEA000841F28939D7F8C804A8
:1049100010EA450F09D1FDF733FCA0EB080048452C
:10492000F4D3032001B0BDE8F0832CB1D7F86C04B8
:1049300020F00400C7F86C043068010422D5B06D83
:10494000002818BFB0F5802F0BD0B0F5002F18BF8E
:10495000B0F5402F05D040F2E911DFF86800FDF70F
:104960000DFCD7F8C814B06D21F440210143C7F8FD
:10497000C814D7F8C814B06D01F44021814218BFA3
:10498000012000D1002001B0BDE8F08310B504463D
:10499000402C04D340F2CD510A48FDF7EFFB0E48FE
:1049A000016821F47C1141EA0441016010BD00005E
:1049B000280802460948016841F002010160704779
:1049C00000000000846A03080448016821F0020125
:1049D0000160704701000024100E0246080E0246D6
:1049E0002DE9F04F05460027DFF8DC8381B00E4645
:1049F00045451CBFDFF8D403854217D0DFF8D0133C
:104A00008D421CBFDFF8CC0385420FD0DFF8C813FE
:104A10008D421FBFDFF8C4038542DFF8C4239542EF
:104A200004D0AF21DFF8BC03FDF7A8FB3068010418
:104A300002D0000C000404D0B021DFF8A803FDF779
:104A40009DFB7068002818BF01281ED0112818BFD0
:104A500002281AD0122818BFB0F5881F15D0B0F55B
:104A6000041F18BFB0F5441F0FD0B0F5901F18BF3A
:104A7000B0F5081F09D0B0F5481F18BF032804D0AF
:104A8000B121DFF86003FDF779FB3068002800F002
:104A9000E58034684FF0010909FA07F919EA0404BE
:104AA00006D130687F1CF840F3D101B0BDE8F08F2B
:104AB00070684FEA470A4FF0030B0BFA0AFB00F04D
:104AC00003016FEA0B0B01291ED1F06800281CBFFF
:104AD0000128022804D0C021DFF80803FDF74EFBAF
:104AE000A868F1680BEA000001FA0AF10843A8601F
:104AF000686820EA09097068C0F30010B84040EA0D
:104B00000909C5F8049003E000F003000228DCD096
:104B10003179B06801F00301032964D000281CBF7B
:104B20000128022804D0D321DFF8B802FDF726FBC4
:104B3000E868B1680BEA000001FA0AF10843E8608E
:104B4000307900F00300022850D028680BEA000BEF
:104B5000307900F0030000FA0AFA4AEA0B0AC5F8B5
:104B600000A0716811F4403F9BD0B808DFF87812BC
:104B7000DFF878E251F82020FB000EEA952E03F0D2
:104B800018034FF00F0C0CFA03FC22EA0C020EFA89
:104B900003F31A4341F82020DFF8540202687368D7
:104BA000E1430A405FEAC32C48BF224302604268E7
:104BB00073680A405FEA832C48BF22434260D0F802
:104BC000842073680A405FEA833C48BF2243C0F8F0
:104BD0008420D0F8802011407268D30348BF21435D
:104BE000C0F880105DE70128AAD097E745451CBFB3
:104BF000DFF8D801854217D0DFF8D4118D421CBFF1
:104C0000DFF8D00185420FD0DFF8CC118D421FBFF5
:104C1000DFF8C8018542DFF8C8118D4204D0E021D9
:104C2000DFF8C001FDF7AAFA3069102810D2F908A0
:104C300005EB8100016ABA00D6F810C002F01C0230
:104C40000F23934099430CFA02F2114301627CE76F
:104C5000E121DFF89001FDF791FAE8E701B0BDE846
:104C6000F08F2DE9F04305460026574881B088466D
:104C700085421CBF55498D4212D0554885421CBF04
:104C800054498D420CD0544885421FBF53498D4230
:104C9000534A954204D040F22F115248FDF76EFA64
:104CA0005FEA084103D04FEA1840000404D04FF4F3
:104CB00098714C48FDF762FAB8F1000F56D0012107
:104CC000B14011EA08004DD0B208474BDFF81C9103
:104CD00053F82240F70009EA952907F018074FF02A
:104CE0000F0C0CFA07FE0EEA040409FA07F7BC429F
:104CF0001AD13F4FD7F88040C0430440C7F88040E6
:104D0000D7F8849000EA0909C7F884907C680440C9
:104D10007C60D7F8009000EA0900386053F8220060
:104D200020EA0E0E43F822E02A680327700087402D
:104D30003A43F3082A6005EB8300026AB30003F0EC
:104D40001C030CFA03FC22EA0C0CC0F820C0A86873
:104D5000FF433840A8606A6822EA01016960E96897
:104D60000F40EF60761C38FA06F0A8D101B0BDE81C
:104D7000F08330B581B004460D0004D14FF4BF710B
:104D80001848FDF7FBF9206901B00540681E804115
:104D9000C043C00F30BD70B504460D46164628000E
:104DA00004D14FF4CE710F48FDF7E8F9300008D078
:104DB000012E04D040F29D110A48FDF7DFF9A561EC
:104DC00070BDA56270BD00000000024200040242F6
:104DD00000080242000C0242001002420018024287
:104DE000001C0242C46E0308602002467F7F2F0031
:104DF0000020024630B581B004462068DFF860121A
:104E000088421FBFDFF85C229042DFF85C32984294
:104E100005D04FF4FC71DFF85402FDF7AFF994F8B8
:104E20008400012808BF022039D0012084F88400C2
:104E30002421C4F8881020680168026852085200D2
:104E400002604FF000506066226841F0005111602E
:104E5000606E28B90121A4F86A10A4F8681018E05F
:104E60000FF20C2321680FF2102288688968490F1D
:104E70005D5C515C400EED0095FBF1F100F0070028
:104E8000A4F86A101B5C105CDB0093FBF0F0A4F844
:104E900068002021C4F88810002084F8840001B044
:104EA00030BD70B5054628680C46DFF8B41188425D
:104EB0001FBFDFF8B0219042DFF8AC31984205D037
:104EC00040F24F21DFF8A401FDF758F9002C18BF7C
:104ED000B4F1005F11D0B4F1804F18BFB4F1C04FEE
:104EE0000BD0B4F1004F18BFB4F1204F05D04FF4F0
:104EF0001471DFF87801FDF741F995F88400012875
:104F000001D1022070BD012085F884002421C5F85C
:104F100088102868016802685208520002602868F8
:104F2000826822F0604214438460686E28B90122CE
:104F3000A5F86A20A5F8682018E00FF234142A6852
:104F40000FF2341390689268520FA65C9A5C400E80
:104F5000F60096FBF2F200F00700A5F86A20245C48
:104F6000185CE40094FBF0F0A5F868002A682020A3
:104F70001160C5F88800002185F88410002070BDFC
:104F800070B5054628680C46DFF8D41088421FBF6C
:104F9000DFF8D0209042DFF8D030984205D04FF4AF
:104FA0002071DFF8C800FDF7E9F8002C18BFB4F154
:104FB000007F11D0B4F1806F18BFB4F1C06F0BD077
:104FC000B4F1006F18BFB4F1206F05D040F2812119
:104FD000DFF89800FDF7D2F895F88400012801D198
:104FE000022070BD012085F884002421C5F88810B6
:104FF00028680168026852085200026028688268C6
:1050000022F0606214438460686E28B90122A5F81A
:105010006A20A5F8682018E00FF254042A680FF2FD
:10502000580390689268520FA65C9A5C400EF60096
:1050300096FBF2F200F00700A5F86A20245C185CE9
:10504000E40094FBF0F0A5F868002A6820201160C5
:10505000C5F88800002185F88410002070BD00008C
:105060000038014000440040002400467C6B0308E7
:105070000101010307010000080402040801010105
:1050800010B5040001D1012010BD2068DFF8B01078
:1050900088421FBFDFF8AC209042DFF8AC30984266
:1050A00004D0DC21DFF8A400FDF768F802202071AD
:1050B000204601F0D8FF0020A0600121217110BD21
:1050C00030B581B0054628680C461D4988421FBF8F
:1050D0001C4A90421C4B984204D040F253211B487A
:1050E000FDF74CF8002C18BFB4F5803F16D0B4F58E
:1050F000003F18BFB4F5403F10D0B4F5802F18BF63
:10510000B4F5A02F0AD0B4F5C02F18BFB4F5E02F26
:1051100004D04FF415710D48FDF730F828790128B7
:1051200008D1022129712868012204602A71002017
:1051300001B030BD0220A860012001B030BD0000E8
:10514000006002404060024040610240086A03087B
:105150002DE9F04104460126002C00F03C81226834
:10516000DFF87832DFF878529A4204D040F2051125
:105170002846FDF703F86068402818BF002804D0CF
:105180004FF483712846FCF7F9FFA068802804D308
:1051900040F207112846FCF7F1FFE068B0F5004F38
:1051A00004D34FF484712846FCF7E8FF20690028F7
:1051B00018BFB0F5001F0CD0B0F5800F1CBFB0F5C4
:1051C000C00FB0F1806F04D04FF485712846FCF712
:1051D000D5FFA069002818BFB0F5801F04D040F2A9
:1051E0000B112846FCF7CAFFE069B0F1804F18BFE9
:1051F000002804D04FF486712846FCF7BFFF206AD0
:10520000002818BFB0F1005F04D040F20D1128460D
:10521000FCF7B4FF6069002818BFB0F1004F04D05C
:105220004FF488712846FCF7A9FF606A00281CBF6C
:10523000B0F5807FB0F5007F04D04FF48971284627
:10524000FCF79CFFA06A002818BFB0F5806F16D04D
:10525000B0F5006F18BFB0F5406F10D0B0F5805FAB
:1052600018BFB0F5A05F0AD0B0F5C05F18BFB0F5A9
:10527000E05F04D040F213112846FCF77FFF94F85A
:105280002D0028B9002184F82C10204601F01EFFC3
:10529000022184F82D10DFF84C512868C10600F176
:1052A0009680CA20A8615321A9612868002641067A
:1052B0001BD4286840F2E93740F080002860FCF7F2
:1052C0005FFF804603E00320032684F82D00296851
:1052D00048060AD4032E08D0FCF752FFA0EB0800C2
:1052E000B842F4D328684106EDD530006AD1E968A8
:1052F000DFF8F40000260140E960EA68606821698F
:1053000040F2E9380243A0690A430243EA60E168D7
:10531000A06841EA004169602A68606AA16A22F4D3
:10532000F85202430A432A60286820F0800028606F
:10533000E868810619D4286820F020002860FCF76E
:105340001FFF07462868810630D4FCF719FFC01BF1
:105350004045F7D32868810628D4032084F82D001F
:10536000032184F82D10032620E0E86820F02000B7
:10537000E860296821F020012960FCF701FF074659
:10538000286881060ED4FCF7FBFEC01B4045F7D30E
:105390002868810606D4032084F82D00032184F8B0
:1053A0002D100326E86840F02000E860300009D1A5
:1053B000EA68206AE16922F06042024360690A43B8
:1053C0000243EA60FF21A961300004D100E0002619
:1053D000012084F82D003046BDE8F08100780046B9
:1053E000A47003080C780046BFFF8FFB2DE9F0473F
:1053F000804698F82C0000261446012808BF022099
:1054000000F03F82012088F82C00022288F82D202D
:10541000DFF810552868DFF810950F4610F4407F2C
:105420003DD1002C18BF012C04D040F21461484635
:10543000FCF7A4FEF86AB0F5807F18BFB0F5007FD6
:1054400004D040F215614846FCF798FE786930F0C8
:10545000803004D040F216614846FCF78FFE386A6F
:10546000002818BFB0F1804F04D040F217614846C1
:10547000FCF784FE7868B0F5004F04D34FF4C361A5
:105480004846FCF77BFEB86900285AD000F17F40FF
:10549000DFF89814884254D340F219614EE028682E
:1054A00000F44070B0F5807F15D1B86950B100F1BB
:1054B0007F40DFF87814884204D340F21D614846EB
:1054C000FCF75CFEF869002818BFB0F1004F38D037
:1054D00040F21E6132E0002C18BF012C04D040F2D3
:1054E00022614846FCF74AFEF86AB0F5807F18BF93
:1054F000B0F5007F04D040F223614846FCF73EFE41
:10550000786930F0803004D040F224614846FCF7DE
:1055100035FE386A002818BFB0F1804F04D040F241
:1055200025614846FCF72AFE2868B969C0F3822045
:105530000830B0EB116F04D240F229614846FCF705
:105540001DFED5F800A00AF4407ABAF5807F00F07D
:105550004E813878002CE96840F0BD804A060FD5AE
:1055600008B10D2804D340F236614846FCF706FE28
:10557000F878002818BF01280AD040F2376104E00B
:10558000FE70182804D340F23C614846FCF7F6FD53
:1055900078783C2804D340F23E614846FCF7EEFDA3
:1055A000B8783C2804D340F23F614846FCF7E6FD5A
:1055B000396A97F8240029B908B1202814D340F299
:1055C00043610EE0012818BF02280DD0032818BF40
:1055D000042809D005281CBF0628072804D040F25B
:1055E00047614846FCF7CAFD387800210A2813D3E2
:1055F0000A38491CC2B20A2A21BF491C0A38C2B261
:105600000A2A09D30A38491CC2B20A2A21BF491CF6
:105610000A38C2B20A2AEBD240EA01107978002295
:105620000A2913D30A39521CCBB20A2B21BF521CB0
:105630000A39CBB20A2B09D30A39521CCBB20A2B36
:1056400021BF521C0A39CBB20A2BEBD241EA02111C
:10565000BA7800230A2A13D30A3A5B1CD4B20A2C64
:1056600021BF5B1C0A3AD4B20A2C09D30A3A5B1C4C
:10567000D4B20A2C21BF5B1C0A3AD4B20A2CEBD25A
:1056800097F8244042EA031200230A2C13D30A3C61
:105690005B1CE6B20A2E21BF5B1C0A3CE6B20A2E56
:1056A00009D30A3C5B1CE6B20A2E21BF5B1C0A3CF4
:1056B000E6B20A2EEBD20906C0B2090C41EA00415B
:1056C000F878D2B2114344EA031441EA8051E4B2BB
:1056D00041EA046187E04B0618D5010901EB81021C
:1056E00000F00F0101EB4201CBB213B1C9B20D2999
:1056F00004D340F255614846FCF740FDF878002895
:1057000018BF012812D040F256610CE0010901EBEC
:10571000810200F00F0000EB4200C0B2FE701828BA
:1057200004D340F25B614846FCF728FD7878010914
:1057300001EB810200F00F0000EB4200C0B23C28F8
:1057400004D340F25E614846FCF718FDB8780109C1
:1057500001EB810200F00F0000EB4200C0B23C28D8
:1057600004D340F25F614846FCF708FD386A97F8B9
:10577000241070B90B0903EB830201F00F0000EB5A
:105780004200C4B214B1C0B220281ED340F26461FA
:1057900018E0080900EB800201F00F0000EB420066
:1057A000C3B2012B1CBFC2B2022A0ED0032A18BFFB
:1057B000042A0AD0052A1EBF062AC0B2072804D030
:1057C0004FF4CD614846FCF7D9FC79783878FA78FF
:1057D000090241EA0041B87897F82430014341EAD0
:1057E000825141EA0361386A7E6901430E43F86AD7
:1057F000B0F5807FE8681ED120F48850E860012170
:105800002965BAF5807F04D1B969F8690143A963B4
:1058100002E06E63B869A86378686866B96AE86888
:1058200001290CBF40F0006020F00060E860E868EB
:1058300040F488501DE020F40850E86002212965FA
:10584000BAF5807F04D1B969F8690143296402E09F
:10585000EE63B86928647868A866B96AE8680129BF
:105860000CBF40F0805020F08050E860E86840F4C1
:105870000850E860012088F82D00002188F82C10DD
:105880000020BDE8F08730B50D4681B00446B5F57F
:10589000807F18BFB5F5007F04D040F2D461224864
:1058A000FCF76CFC94F82C00012808BF022020D0E3
:1058B000012084F82C00022184F82D101848B5F539
:1058C000807F016807D121F488510160C26A22F00B
:1058D0000042C26206E021F408510160426B22F0EE
:1058E00000424263012084F82D00002184F82C102E
:1058F000002001B030BD70B50D4D2E680446F10793
:1059000003D50122AA6005F0E2FCB00704D502210C
:10591000A9602046C046C046012084F82D0070BD15
:10592000187800460C780046A47003080100003E79
:105930005478004690F82C10012901D102207047BC
:10594000012180F82C10022380F82D30DFF84C1054
:105950000A6842F020020A60012180F82D1000221E
:1059600080F82C200020704790F82C10012901D1DC
:1059700002207047012180F82C10022380F82D307E
:10598000DFF818100A6842F080020A60012180F8EE
:105990002D10002280F82C20002070471878004637
:1059A00030B50C4681B01546202C04D340F60A21B0
:1059B0003448FCF7E3FB344800EB8400056001B099
:1059C00030BD30B581B00C4620682E4DB0F5004F8B
:1059D00018BF002804D040F6ED212846FCF7CEFB86
:1059E00060682A49084204D040F6EE212846FCF7B8
:1059F000C5FBA068B0F1004F18BF002804D040F6E6
:105A0000EF212846FCF7BAFBA069B0F5004F18BF9C
:105A1000002804D04FF42F612846FCF7AFFBE06864
:105A200030F0C04004D040F6F1212846FCF7A6FB38
:105A30002069202804D340F6F2212846FCF79EFB7B
:105A40006069202804D340F6F3212846FCF796FB32
:105A5000216860680E4A01431160A368E068A1698B
:105A600003430B43C2F80834D2F804342069616957
:105A700023F0FF13034343EA01430020C2F8043438
:105A800001B030BD006B0308007D0046F09FFFFFB2
:105A90001C78004630B581B0040002D1012001B06D
:105AA00030BD2068344A904203D0A3213348FCF72C
:105AB00065FB6068002818BF202803D0A4212F4868
:105AC000FCF75CFB607A20B900212172204601F0CE
:105AD000D8FA0220607220684AF2B023016821F0EF
